100INGRELIAST 0710000132004112409114000800080                                   
20022624200411240001081256 071000013                                            
646900100100088326760910000190000014086715876175963767InterBusiness             
446900100100017212930002194787200411240000022081690000022081690                 
446900100200017212930006138941200411240000022081690000022081690                 
446900100300017212930008381377200411240000022081690000022081690                 
446900100400017212930006966625200411240000022081690000022081690                 
646900200200034475890910000190000014086719584897074102Math Software             
446900200100044289820007363653200411240000011491960000011491960                 
446900200200044289820002330479200411240000011491960000011491960                 
446900200300044289820004293486200411240000011491970000011491970                 
74690022624200411240020070012280265                                             
687900100100058997360910000190000014086718607474370240USKBA                     
487900100100052750180009820040200411240000019665780000019665780                 
487900100200052750180008493496200411240000019665780000019665780                 
487900100300052750180000257570200411240000019665800000019665800                 
687900200200039991650910000190000014086719936904286146Wyde Inc.                 
487900200100037227430006128386200411240000013330550000013330550                 
487900200200037227430009827128200411240000013330550000013330550                 
487900200300037227430005109059200411240000013330550000013330550                 
78790022624200411240020060009898901                                             
619900100100078155950910000190000014086717598943777292Renthouse                 
419900100100064325930005358316200411240000019538980000019538980                 
419900100200064325930006075372200411240000019538980000019538980                 
419900100300064325930002786545200411240000019538980000019538980                 
419900100400064325930003116249200411240000019539010000019539010                 
619900200200089755620910000190000014086717598944226026Renthouse                 
419900200100037990900007073754200411240000029918540000029918540                 
419900200200037990900008028372200411240000029918540000029918540                 
419900200300037990900006218578200411240000029918540000029918540                 
619900300300048606580910000190000014086716617393589900US Airlines               
419900300100053862940006643993200411240000024303290000024303290                 
419900300200053862940004701852200411240000024303290000024303290                 
71990022624200411240030090021651815                                             
652700100100097437370910000190000014086719584815673971Math Software             
452700100100074167690001387703200411240000097437370000097437370                 
652700200200082288010910000190000014086719766908289647US Steel                  
452700200100091420160004591841200411240000041144000000041144000                 
452700200200091420160007580518200411240000041144010000041144010                 
75270022624200411240020030017972538                                             
655500100100062013610910000190000014086715876150626205InterBusiness             
455500100100090678340000143370200411240000020671200000020671200                 
455500100200090678340006177942200411240000020671200000020671200                 
455500100300090678340007292847200411240000020671210000020671210                 
655500200200035636490910000190000014086716121317381572Axa                       
455500200100085207790004944087200411240000017818240000017818240                 
455500200200085207790004799248200411240000017818250000017818250                 
655500300300000983500910000190000014086719584827485897Math Software             
455500300100034953420006673747200411240000000983500000000983500                 
655500400400087277140910000190000014086716617382192658US Airlines               
455500400100018207080005472862200411240000029092380000029092380                 
455500400200018207080006572560200411240000029092380000029092380                 
455500400300018207080002700931200411240000029092380000029092380                 
655500500500091516640910000190000014086715876171557282InterBusiness             
455500500100015982450007811046200411240000091516640000091516640                 
655500600600002501860910000190000014086717598950118517Renthouse                 
455500600100036716980000534655200411240000000625460000000625460                 
455500600200036716980004881469200411240000000625460000000625460                 
455500600300036716980006428147200411240000000625460000000625460                 
455500600400036716980005888045200411240000000625480000000625480                 
655500700700070741690910000190000014086714967228289079United Courtage           
455500700100001274390000785648200411240000023580560000023580560                 
455500700200001274390000020836200411240000023580560000023580560                 
455500700300001274390006548376200411240000023580570000023580570                 
75550022624200411240070170035067093                                             
620000100100048169170910000190000014086719766960531424US Steel                  
420000100100053823580005249425200411240000024084580000024084580                 
420000100200053823580008574394200411240000024084590000024084590                 
620000200200022188850910000190000014086711813038062035International Transport   
420000200100036733450006847030200411240000007396280000007396280                 
420000200200036733450007331219200411240000007396280000007396280                 
420000200300036733450007596863200411240000007396290000007396290                 
620000300300025556270910000190000014086714967240929376United Courtage           
420000300100045878310004526979200411240000025556270000025556270                 
620000400400029684750910000190000014086716617374090885US Airlines               
420000400100064317960002791723200411240000029684750000029684750                 
620000500500099662670910000190000014086716121368263625Axa                       
420000500100053805580009938675200411240000033220890000033220890                 
420000500200053805580007401153200411240000033220890000033220890                 
420000500300053805580000613140200411240000033220890000033220890                 
620000600600058573430910000190000014086715891960720919Trust Com                 
420000600100035957280009113184200411240000014643350000014643350                 
420000600200035957280001965772200411240000014643350000014643350                 
420000600300035957280004378659200411240000014643350000014643350                 
420000600400035957280005089581200411240000014643380000014643380                 
620000700700064368310910000190000014086715891980523108Trust Com                 
420000700100010224240004076356200411240000064368310000064368310                 
620000800800073563240910000190000014086711733314195877BookStore                 
420000800100020502360007775238200411240000073563240000073563240                 
72000022624200411240080160042176669                                             
684500100100034858310910000190000014086713724589886020Issuing company           
484500100100036319270003469068200411240000034858310000034858310                 
684500200200003733340910000190000014086717598922532725Renthouse                 
484500200100097660910008355571200411240000001244440000001244440                 
484500200200097660910004857747200411240000001244440000001244440                 
484500200300097660910006370667200411240000001244460000001244460                 
684500300300064023860910000190000014086714967237594222United Courtage           
484500300100053647480003876409200411240000064023860000064023860                 
684500400400016679340910000190000014086719936956903480Wyde Inc.                 
484500400100050009380001254682200411240000004169830000004169830                 
484500400200050009380003464922200411240000004169830000004169830                 
484500400300050009380006347878200411240000004169830000004169830                 
484500400400050009380009559338200411240000004169850000004169850                 
78450022624200411240040090011929485                                             
625800100100034142780910000190000014086719584854907226Math Software             
425800100100030799980005001955200411240000011380920000011380920                 
425800100200030799980006899167200411240000011380920000011380920                 
425800100300030799980001394317200411240000011380940000011380940                 
625800200200094752300910000190000014086719936947776650Wyde Inc.                 
425800200100063614360005306641200411240000047376150000047376150                 
425800200200063614360005503217200411240000047376150000047376150                 
625800300300010402100910000190000014086714967247469961United Courtage           
425800300100032616700004714449200411240000005201050000005201050                 
425800300200032616700007980245200411240000005201050000005201050                 
625800400400022064080910000190000014086719936958044731Wyde Inc.                 
425800400100063370500001189629200411240000005516020000005516020                 
425800400200063370500000938012200411240000005516020000005516020                 
425800400300063370500004675657200411240000005516020000005516020                 
425800400400063370500004461942200411240000005516020000005516020                 
625800500500091862900910000190000014086719936987956046Wyde Inc.                 
425800500100062489120008711265200411240000045931450000045931450                 
425800500200062489120006764168200411240000045931450000045931450                 
625800600600011973370910000190000014086715643799960612Hiring.com                
425800600100007201260000691477200411240000003991120000003991120                 
425800600200007201260003042616200411240000003991120000003991120                 
425800600300007201260009697874200411240000003991130000003991130                 
72580022624200411240060160026519753                                             
8999999002262420041124003400830177496519000127                                  
20022641200411240001081264 111000614                                            
689900100100074105510910000190000014086717565030569809Veberto Peter             
489900100100014366100008676359200411240000037052750000037052750                 
489900100200014366100005829709200411240000037052760000037052760                 
689900200200085136160910000190000014086718765057474862Vanmasura William         
489900200100089312350005008701200411240000085136160000085136160                 
78990022641200411240020030015924167                                             
615300100100055909370910000190000014086713502397962068Lomesura Tom              
415300100100059401210003560511200411240000027954680000027954680                 
415300100200059401210009513980200411240000027954690000027954690                 
615300200200007162180910000190000014086718569842192530Loumanman Laurence        
415300200100097203180003854550200411240000002387390000002387390                 
415300200200097203180002147022200411240000002387390000002387390                 
415300200300097203180000845891200411240000002387400000002387400                 
615300300300027399030910000190000014086719277904000890Veneuvenme Peter          
415300300100026076630007633101200411240000009133010000009133010                 
415300300200026076630005580675200411240000009133010000009133010                 
415300300300026076630004123262200411240000009133010000009133010                 
615300400400057316320910000190000014086715335406385433Turansura Eduard          
415300400100094633450000678987200411240000057316320000057316320                 
615300500500047564570910000190000014086710026852272486Mcma Laurence             
415300500100094216580004793321200411240000023782280000023782280                 
415300500200094216580008712364200411240000023782290000023782290                 
71530022641200411240050110019535147                                             
698200100100084760990910000190000014086715351179526304Filisonme Peter           
498200100100008933660007718697200411240000042380490000042380490                 
498200100200008933660000276105200411240000042380500000042380500                 
698200200200083159020910000190000014086718017254461776Filililoman Pedro         
498200200100033356750006974020200411240000083159020000083159020                 
698200300300026177090910000190000014086719336342306720Louliloma Peter           
498200300100051115280008420912200411240000006544270000006544270                 
498200300200051115280000869165200411240000006544270000006544270                 
498200300300051115280001931092200411240000006544270000006544270                 
498200300400051115280001993808200411240000006544280000006544280                 
79820022641200411240030070019409710                                             
685800100100097804750910000190000014086713462958898317Loliloman Eduard          
485800100100046303520009313018200411240000048902370000048902370                 
485800100200046303520009445613200411240000048902380000048902380                 
685800200200010192910910000190000014086711616946084785Mcneuvensura Julia        
485800200100090601910007100764200411240000003397630000003397630                 
485800200200090601910007474663200411240000003397630000003397630                 
485800200300090601910007762741200411240000003397650000003397650                 
685800300300039313330910000190000014086717015184761344Vanneuven Kate            
485800300100068861370006878117200411240000013104440000013104440                 
485800300200068861370009610184200411240000013104440000013104440                 
485800300300068861370009865216200411240000013104450000013104450                 
685800400400002713960910000190000014086714114254260253Tulilostel Kate           
485800400100091140350009476748200411240000000904650000000904650                 
485800400200091140350004921919200411240000000904650000000904650                 
485800400300091140350007459091200411240000000904660000000904660                 
78580022641200411240040110015002495                                             
651900100100060976660910000190000014086717565049254244Veberto Peter             
451900100100028505130008374605200411240000060976660000060976660                 
651900200200057561530910000190000014086713213866327285Mcstelma Laurence         
451900200100028823620007148718200411240000014390380000014390380                 
451900200200028823620007692100200411240000014390380000014390380                 
451900200300028823620005541569200411240000014390380000014390380                 
451900200400028823620000265295200411240000014390390000014390390                 
75190022641200411240020050011853819                                             
611300100100093804850910000190000014086717713371913980Loran Pedro               
411300100100020970720006650299200411240000093804850000093804850                 
611300200200017534540910000190000014086716753640626614Vanme Pedro               
411300200100080252480001715285200411240000008767270000008767270                 
411300200200080252480006111956200411240000008767270000008767270                 
611300300300091905030910000190000014086710026828943180Mcma Laurence             
411300300100095254420002675950200411240000022976250000022976250                 
411300300200095254420007073697200411240000022976250000022976250                 
411300300300095254420000604116200411240000022976250000022976250                 
411300300400095254420007785472200411240000022976280000022976280                 
611300400400018610570910000190000014086717713371126464Loran Pedro               
411300400100012028710009815285200411240000004652640000004652640                 
411300400200012028710008821002200411240000004652640000004652640                 
411300400300012028710000350201200411240000004652640000004652640                 
411300400400012028710003429438200411240000004652650000004652650                 
611300500500070376710910000190000014086719336378536175Louliloma Peter           
411300500100071027000000365424200411240000023458900000023458900                 
411300500200071027000001221577200411240000023458900000023458900                 
411300500300071027000007482427200411240000023458910000023458910                 
611300600600056352680910000190000014086716505349152785Tuman Peter               
411300600100009378380002068925200411240000028176340000028176340                 
411300600200009378380007291861200411240000028176340000028176340                 
611300700700001764910910000190000014086718400178548430Loulilo William           
411300700100013776650005957811200411240000000441220000000441220                 
411300700200013776650003828272200411240000000441220000000441220                 
411300700300013776650005431248200411240000000441220000000441220                 
411300700400013776650007509905200411240000000441250000000441250                 
611300800800013230960910000190000014086718630844644832Mcma John                 
411300800100050890700001950394200411240000003307740000003307740                 
411300800200050890700005601781200411240000003307740000003307740                 
411300800300050890700007087875200411240000003307740000003307740                 
411300800400050890700002000419200411240000003307740000003307740                 
611300900900025154870910000190000014086716781975404404Tulilosura Julia          
411300900100015824050004625793200411240000006288710000006288710                 
411300900200015824050008672467200411240000006288710000006288710                 
411300900300015824050008900088200411240000006288710000006288710                 
411300900400015824050006619133200411240000006288740000006288740                 
71130022641200411240090280038873512                                             
613800100100068472460910000190000014086711573511852598Wrightberto Pedro         
413800100100087522160002433883200411240000017118110000017118110                 
413800100200087522160009096479200411240000017118110000017118110                 
413800100300087522160002090087200411240000017118110000017118110                 
413800100400087522160002109353200411240000017118130000017118130                 
613800200200017039140910000190000014086713213802799582Mcstelma Laurence         
413800200100098071550001691279200411240000017039140000017039140                 
613800300300038699510910000190000014086712892978852104Xume Eduard               
413800300100046289540005369160200411240000009674870000009674870                 
413800300200046289540000424659200411240000009674870000009674870                 
413800300300046289540004529919200411240000009674870000009674870                 
413800300400046289540001529682200411240000009674900000009674900                 
613800400400095063960910000190000014086712239703345918Vestel Tom                
413800400100018632790009591850200411240000047531980000047531980                 
413800400200018632790008691533200411240000047531980000047531980                 
613800500500048901950910000190000014086719336337652229Louliloma Peter           
413800500100050279770006083874200411240000016300650000016300650                 
413800500200050279770006808397200411240000016300650000016300650                 
413800500300050279770000539505200411240000016300650000016300650                 
613800600600052109330910000190000014086717402071270882Vanran Kate               
413800600100026327860001783405200411240000017369770000017369770                 
413800600200026327860009841333200411240000017369770000017369770                 
413800600300026327860009911167200411240000017369790000017369790                 
71380022641200411240060170032028635                                             
627200100100015352160910000190000014086718017240171181Filililoman Pedro         
427200100100045380740006963944200411240000015352160000015352160                 
627200200200076323070910000190000014086710205940675353Vestel Tom                
427200200100032491150002269505200411240000038161530000038161530                 
427200200200032491150005551546200411240000038161540000038161540                 
627200300300013323060910000190000014086717496155349587Xustel John               
427200300100074449610006109215200411240000003330760000003330760                 
427200300200074449610007626091200411240000003330760000003330760                 
427200300300074449610002929427200411240000003330760000003330760                 
427200300400074449610003075318200411240000003330780000003330780                 
627200400400019284980910000190000014086712763674622654Mcsonran Tom              
427200400100079226740007948054200411240000004821240000004821240                 
427200400200079226740005312144200411240000004821240000004821240                 
427200400300079226740003851098200411240000004821240000004821240                 
427200400400079226740002726885200411240000004821260000004821260                 
627200500500027413580910000190000014086712170616520529Wrightmeberto Susan       
427200500100098693270004341225200411240000013706790000013706790                 
427200500200098693270004985941200411240000013706790000013706790                 
72720022641200411240050130015169685                                             
657800100100094427480910000190000014086717565012327337Xuranran Tom              
457800100100001883450006506675200411240000094427480000094427480                 
657800200200077506480910000190000014086711079865352421Esmelilo Tom              
457800200100045695500003197021200411240000025835490000025835490                 
457800200200045695500004104423200411240000025835490000025835490                 
457800200300045695500001549129200411240000025835500000025835500                 
657800300300032339800910000190000014086715427362219452Xuneuvenstel Kate         
457800300100098598370001523644200411240000010779930000010779930                 
457800300200098598370005005485200411240000010779930000010779930                 
457800300300098598370006695485200411240000010779940000010779940                 
657800400400024357880910000190000014086719802254716348Filisura Pedro            
457800400100025220930008978823200411240000012178940000012178940                 
457800400200025220930007370580200411240000012178940000012178940                 
657800500500060211050910000190000014086714796997014235Filima Pedro              
457800500100083182990008923632200411240000015052760000015052760                 
457800500200083182990000601098200411240000015052760000015052760                 
457800500300083182990000360403200411240000015052760000015052760                 
457800500400083182990000517304200411240000015052770000015052770                 
657800600600080648970910000190000014086714624412610483Tumanran William          
457800600100039552510000351568200411240000040324480000040324480                 
457800600200039552510006473478200411240000040324490000040324490                 
657800700700098714190910000190000014086714208409999632Louranlilo Kate           
457800700100098051840008426934200411240000049357090000049357090                 
457800700200098051840001359512200411240000049357100000049357100                 
657800800800008107290910000190000014086714865708016776Lobertosura Tom           
457800800100063860140000400664200411240000002702430000002702430                 
457800800200063860140001021612200411240000002702430000002702430                 
457800800300063860140008687611200411240000002702430000002702430                 
75780022641200411240080200047631314                                             
675600100100019190070910000190000014086712173512829816Loran Julia               
475600100100036954770006415942200411240000004797510000004797510                 
475600100200036954770002598439200411240000004797510000004797510                 
475600100300036954770007835773200411240000004797510000004797510                 
475600100400036954770003067085200411240000004797540000004797540                 
675600200200046704590910000190000014086713322340387844Losonson Peter            
475600200100042012900006380390200411240000015568190000015568190                 
475600200200042012900006228362200411240000015568190000015568190                 
475600200300042012900008595201200411240000015568210000015568210                 
675600300300093116630910000190000014086714080870554871Esneuvenberto Laurence    
475600300100026182520005733725200411240000023279150000023279150                 
475600300200026182520004124443200411240000023279150000023279150                 
475600300300026182520003958358200411240000023279150000023279150                 
475600300400026182520005850879200411240000023279180000023279180                 
77560022641200411240030110015901129                                             
8999999002264120041124004701260231329613000312                                  
9000314                                                                         
