000CP00000069906121      SI0000006990612113083098D00351130903ER  DR               128      20130903                             
1757024245      000282       CENTRE DE SANTE DENTAIRE LAVAL          DR130903 ERO000000U                                        
2757024245 252118481333721005104309   1130827 D          0530032549000000   10 00000000000000075211301            00000069906121
4757024245 252118481333721005104309 00000000000000    5300325490000130516Z    01001600000000133000212807000014900002128  0000638
4757024245 252118481333721005104309 00000000000000    5300325490000130516DC   01001600000000209000334407000023410003344  0001003
4757024245 252118481333721005104309D01            DC              46                        00                                  
5757024245 252118481333721005104309   003                00005472000038310000164100001641                                       
675702424500100030001001000005472000003831000001641282RD                               000000000                                
999CP00000069906121      SI00000069906121      98D0035100000009                   001                                           
000CP00000069906121      SI0000006990612113083098D00352130903ER  DR               128      20130903                             
1757024245      000841       DR PHILIPPE GUEDJ                       DR130903 ERO000000U                                        
2757024245 252118481333721000007776   1130828 D          0134040419000000   10 00000000000000075211301            00000069906121
4757024245 252118481333721000007776 00000000000000    1340404190000130516SC   01003400000000241000819407000057360008194  0002458
4757024245 252118481333721000007776D01            SC              17                        00                                  
4757024245 252118481333721000007776 00000000000000    1340404190000130516SC   01001200000000241000289207000020240002892  0000868
4757024245 252118481333721000007776 00000000000000    1340404190000130516SC   01000700000000241000168707000011810001687  0000506
4757024245 252118481333721000007776D01            SC              17                        00                                  
5757024245 252118481333721000007776   005                00012773000089410000383200003832                                       
675702424500100050001001000012773000008941000003832841RD                               000000000                                
999CP00000069906121      SI00000069906121      98D0035200000011                   001                                           
000CP00000069906121      SI0000006990612113083098D00353130903ER  DR               128      20130903                             
1310018692      000876       C. DE SANTE DENTAIRE H. J               DR130903 ERO000000U                                        
2310018692 169049301003988000073674   1130828 D          0310018692000000   10 00000000000000076904131            00000069906121
4310018692 169049301003988000073674 00000000000000    3100186920000130827SC   01002000000000241000482007000033740004820  0001446
4310018692 169049301003988000073674D01            SC              25                        00                                  
4310018692 169049301003988000073674 00000000000000    3100186920000130827Z    01000600000000133000079807000005590000798  0000239
4310018692 169049301003988000073674D01            Z               25                        00                                  
4310018692 169049301003988000073674 00000000000000    3100186920000130827Z    01000300000000133000039907000002790000399  0000120
4310018692 169049301003988000073674D01            Z               25                        00                                  
5310018692 169049301003988000073674   006                00006017000042120000180500001805                                       
631001869200100060001001000006017000004212000001805876RD                               000000000                                
999CP00000069906121      SI00000069906121      98D0035300000012                   001                                           
000TE00000069906121      OC0000006990612113090398D00355130903ER  DR               128      20130903                             
1060007648      000001       CENTRE DE SANTE DENTAIRE                DR130903 ERO000000U                                        
2060007648 268040602714871027006414   1130903 D          0060007648000000   10 00000000000000076804191            00000069906121
4060007648 268040602714871027006414 00000000000000    0600076480000130719SPR  01005000000000215001075007000075250056400  0045150
4060007648 268040602714871027006414D01            SPR             35                        00                                  
4060007648 268040602714871027006414 00000000000000    0600076480000130719SPR  01005700000000215001225507000085790016000  0007421
4060007648 268040602714871027006414D01            SPR             35                        00                                  
5060007648 268040602714871027006414   004                00072400000161040005629600052571                                       
606000764800100040001001000072400000016104000052571001RD                               000000000                                
999TE00000069906121      OC00000069906121      98D0035500000010                   001                                           
000TE00000069906121      CS0000006990612113083098D00356130903ER  DR               128      20130903                             
1840017982      000BEX       CENTRE DE SANTE DENTAIRE AVIGNON        DR130903 ERO000000U                                        
2840017982 283035212109465005089988   1130830 D          0840017982000000   10 00000000000000078303261            00000069906121
4840017982 283035212109465005089988 00000000000000    8400179820000130822SC   01001200000000241000289207000020240002892  0000868
4840017982 283035212109465005089988D01            SC              11                        00                                  
4840017982 283035212109465005089988 00000000000000    8400179820000130822SC   01001700000000241000409707000028680004097  0001229
4840017982 283035212109465005089988D01            SC              21                        00                                  
4840017982 283035212109465005089988 00000000000000    8400179820000130822SC   01000700000000241000168707000011810001687  0000506
4840017982 283035212109465005089988D01            SC              21                        00                                  
4840017982 283035212109465005089988 00000000000000    8400179820000130822SC   01001200000000241000289207000020240002892  0000868
4840017982 283035212109465005089988D01            SC              21                        00                                  
4840017982 283035212109465005089988 00000000000000    8400179820000130822SC   01000700000000241000168707000011810001687  0000506
4840017982 283035212109465005089988D01            SC              11                        00                                  
4840017982 283035212109465005089988 00000000000000    8400179820000130822SC   01001200000000241000289207000020240002892  0000868
4840017982 283035212109465005089988D01            SC              22                        00                                  
5840017982 283035212109465005089988   012                00016147000113020000484500004845                                       
684001798200100120001001000016147000011302000004845BEXRD                               000000000                                
999TE00000069906121      CS00000069906121      98D0035600000018                   001                                           
000CP00000069906121      SI0000006990612113083098D00359130903ER  DR               128      20130903                             
1134043454      000494       DR LAZHAR GHEZALA                       DR130903 ERO000000U                                        
2134043454 152047505103881000125579   1130828 D          0134043454000000   10 00000000000000070202131            00000069906121
4134043454 152047505103881000125579 00000000000000    1340434540000130828SC   01002000000000241000482007000033740004820  0001446
4134043454 152047505103881000125579D01            SC              21                        00                                  
5134043454 152047505103881000125579   002                00004820000033740000144600001446                                       
613404345400100020001001000004820000003374000001446494RD                               000000000                                
999CP00000069906121      SI00000069906121      98D0035900000008                   001                                           
