100WYNSURE    0710000132005021818034000800080                                   
20022624200502180001081256 071000013                                            
664000100100022629350910000190000014086711074637175452House Trader              
464000100100065768800006028956200502180000007543110000007543110                 
464000100200065768800009183941200502180000007543110000007543110                 
464000100300065768800005778393200502180000007543130000007543130                 
664000200200019181670910000190000014086712535788235711Wyde Inc.                 
464000200100098229110007158512200502180000019181670000019181670                 
664000300300044393530910000190000014086710941844842594Trust Com                 
464000300100004625000007594036200502180000011098380000011098380                 
464000300200004625000000599454200502180000011098380000011098380                 
464000300300004625000008841492200502180000011098380000011098380                 
464000300400004625000004064007200502180000011098390000011098390                 
76400022624200502180030080008620455                                             
620100100100026455070910000190000014086712495927785914BookStore                 
420100100100086254030009945978200502180000006613760000006613760                 
420100100200086254030002460714200502180000006613760000006613760                 
420100100300086254030007755328200502180000006613760000006613760                 
420100100400086254030004917416200502180000006613790000006613790                 
620100200200031059410910000190000014086711897572032689The Second Issuing Company
420100200100029415280001689120200502180000031059410000031059410                 
72010022624200502180020050005751448                                             
683300100100062811270910000190000014086710677379110764US Steel                  
483300100100018810990006245965200502180000031405630000031405630                 
483300100200018810990005074765200502180000031405640000031405640                 
683300200200087016810910000190000014086719717106018865Issuing company 1         
483300200100042874950008582789200502180000043508400000043508400                 
483300200200042874950000453204200502180000043508410000043508410                 
683300300300066278910910000190000014086711074616828918House Trader              
483300300100094198590009013785200502180000033139450000033139450                 
483300300200094198590008748507200502180000033139460000033139460                 
683300400400008800520910000190000014086717132495045541French Perfumes           
483300400100025810430001261017200502180000004400260000004400260                 
483300400200025810430007527925200502180000004400260000004400260                 
683300500500058869450910000190000014086711074626158952House Trader              
483300500100014973030000453106200502180000019623150000019623150                 
483300500200014973030001188578200502180000019623150000019623150                 
483300500300014973030006078601200502180000019623150000019623150                 
683300600600060632190910000190000014086711074613506090House Trader              
483300600100064230290008061131200502180000060632190000060632190                 
683300700700002609220910000190000014086717132487628703French Perfumes           
483300700100016736570005401583200502180000000869740000000869740                 
483300700200016736570004739086200502180000000869740000000869740                 
483300700300016736570008577982200502180000000869740000000869740                 
78330022624200502180070150034701837                                             
607600100100036194390910000190000014086712495944653570BookStore                 
407600100100016348810002237749200502180000036194390000036194390                 
607600200200056987270910000190000014086714967249939441US Airlines               
407600200100057103970007793380200502180000028493630000028493630                 
407600200200057103970001997905200502180000028493640000028493640                 
607600300300088438880910000190000014086714967248848771US Airlines               
407600300100071936140009116550200502180000029479620000029479620                 
407600300200071936140001736061200502180000029479620000029479620                 
407600300300071936140009011220200502180000029479640000029479640                 
607600400400028679030910000190000014086712535779538249Wyde Inc.                 
407600400100068628160007466994200502180000014339510000014339510                 
407600400200068628160007163490200502180000014339520000014339520                 
607600500500002824560910000190000014086717406374962558Axa                       
407600500100055443680005878621200502180000000706140000000706140                 
407600500200055443680002227720200502180000000706140000000706140                 
407600500300055443680007063054200502180000000706140000000706140                 
407600500400055443680001877993200502180000000706140000000706140                 
70760022624200502180050120021312413                                             
647400100100086735290910000190000014086715052605337952Renthouse                 
447400100100076327530001430580200502180000043367640000043367640                 
447400100200076327530002091049200502180000043367650000043367650                 
74740022624200502180010020008673529                                             
630200100100038258410910000190000014086717132478788661French Perfumes           
430200100100011855760008969989200502180000009564600000009564600                 
430200100200011855760001675522200502180000009564600000009564600                 
430200100300011855760003038115200502180000009564600000009564600                 
430200100400011855760001807430200502180000009564610000009564610                 
630200200200048417170910000190000014086716121304729437United Courtage           
430200200100094736440008010079200502180000016139050000016139050                 
430200200200094736440002693810200502180000016139050000016139050                 
430200200300094736440006334864200502180000016139070000016139070                 
630200300300052753130910000190000014086715221151132702USKBA                     
430200300100026412210007226057200502180000026376560000026376560                 
430200300200026412210005230652200502180000026376570000026376570                 
630200400400045325560910000190000014086712535707280168Wyde Inc.                 
430200400100096359720002776014200502180000015108520000015108520                 
430200400200096359720004820196200502180000015108520000015108520                 
430200400300096359720000386571200502180000015108520000015108520                 
630200500500054852990910000190000014086711074622751164House Trader              
430200500100080405720003796040200502180000027426490000027426490                 
430200500200080405720004947193200502180000027426500000027426500                 
73020022624200502180050140023960726                                             
698200100100031345740910000190000014086719717104154777Issuing company 1         
498200100100048022510003498317200502180000007836430000007836430                 
498200100200048022510000761165200502180000007836430000007836430                 
498200100300048022510004302092200502180000007836430000007836430                 
498200100400048022510006615780200502180000007836450000007836450                 
698200200200089162070910000190000014086717132468785690French Perfumes           
498200200100051729660000652220200502180000089162070000089162070                 
698200300300065535250910000190000014086714967213118076US Airlines               
498200300100088686150009449540200502180000032767620000032767620                 
498200300200088686150009425249200502180000032767630000032767630                 
698200400400050803870910000190000014086717406362172698Axa                       
498200400100092497000004315163200502180000012700960000012700960                 
498200400200092497000007510999200502180000012700960000012700960                 
498200400300092497000006957253200502180000012700960000012700960                 
498200400400092497000002577330200502180000012700990000012700990                 
698200500500099017380910000190000014086716121384899663United Courtage           
498200500100068392170002529887200502180000024754340000024754340                 
498200500200068392170007380556200502180000024754340000024754340                 
498200500300068392170000243853200502180000024754340000024754340                 
498200500400068392170005886282200502180000024754360000024754360                 
698200600600083694920910000190000014086712495975697755BookStore                 
498200600100043811760004116935200502180000027898300000027898300                 
498200600200043811760000478839200502180000027898300000027898300                 
498200600300043811760003166423200502180000027898320000027898320                 
79820022624200502180060180041955923                                             
633000100100015780820910000190000014086714967294804142US Airlines               
433000100100099586510002865857200502180000005260270000005260270                 
433000100200099586510005860237200502180000005260270000005260270                 
433000100300099586510005156694200502180000005260280000005260280                 
633000200200037103930910000190000014086719717105518841Issuing company 1         
433000200100095216590000143287200502180000037103930000037103930                 
633000300300018203620910000190000014086711897567069100The Second Issuing Company
433000300100010080620009648445200502180000018203620000018203620                 
633000400400088538080910000190000014086713350289852046Hiring.com                
433000400100082582110005265726200502180000022134520000022134520                 
433000400200082582110003925816200502180000022134520000022134520                 
433000400300082582110007580699200502180000022134520000022134520                 
433000400400082582110006436229200502180000022134520000022134520                 
633000500500011411950910000190000014086716121369436263United Courtage           
433000500100023064420007849295200502180000002852980000002852980                 
433000500200023064420006405906200502180000002852980000002852980                 
433000500300023064420008402048200502180000002852980000002852980                 
433000500400023064420005006415200502180000002853010000002853010                 
633000600600092429060910000190000014086712535727579498Wyde Inc.                 
433000600100088299480009623395200502180000046214530000046214530                 
433000600200088299480008552574200502180000046214530000046214530                 
73300022624200502180060150026346746                                             
684200100100053501210910000190000014086717132414986091French Perfumes           
484200100100032675360004422778200502180000017833730000017833730                 
484200100200032675360006805918200502180000017833730000017833730                 
484200100300032675360007140901200502180000017833750000017833750                 
78420022624200502180010030005350121                                             
8999999002262420050218003600920176673198000139                                  
20022641200502180001081264 111000614                                            
626800100100006136530910000190000014086714952140894934Loson Kate                
426800100100092521120009427711200502180000002045510000002045510                 
426800100200092521120001035874200502180000002045510000002045510                 
426800100300092521120003852052200502180000002045510000002045510                 
72680022641200502180010030000613653                                             
688900100100077169410910000190000014086719187368664168Turan Kate                
488900100100098025590007672330200502180000038584700000038584700                 
488900100200098025590003920073200502180000038584710000038584710                 
688900200200032862190910000190000014086718340602291822Lousurason Julia          
488900200100024675200003720348200502180000016431090000016431090                 
488900200200024675200007782506200502180000016431100000016431100                 
688900300300056394900910000190000014086710161197002684Lolilo Eduard             
488900300100071883690001480095200502180000056394900000056394900                 
688900400400026445810910000190000014086719649724062895Wrightman Peter           
488900400100009536610008965835200502180000026445810000026445810                 
688900500500040230310910000190000014086713950077275919Loberto John              
488900500100022127050004209341200502180000010057570000010057570                 
488900500200022127050009949192200502180000010057570000010057570                 
488900500300022127050005343185200502180000010057570000010057570                 
488900500400022127050009538523200502180000010057600000010057600                 
688900600600027893630910000190000014086718727793736540Esma Eduard               
488900600100077887690002235674200502180000009297870000009297870                 
488900600200077887690008050662200502180000009297870000009297870                 
488900600300077887690000477127200502180000009297890000009297890                 
688900700700046255390910000190000014086711879814066707Tumaberto Peter           
488900700100038265890003927220200502180000015418460000015418460                 
488900700200038265890009858815200502180000015418460000015418460                 
488900700300038265890006725534200502180000015418470000015418470                 
688900800800033489670910000190000014086715399372073292Wrightme Kate             
488900800100096533090009286631200502180000016744830000016744830                 
488900800200096533090005655245200502180000016744840000016744840                 
688900900900042691720910000190000014086714318957589125Xusurama Kate             
488900900100036647910001190304200502180000042691720000042691720                 
78890022641200502180090190038343303                                             
625300100100033243580910000190000014086719497413913869Loliloman Susan           
425300100100074468230001970083200502180000033243580000033243580                 
625300200200022814050910000190000014086718861133173250Wrightberto John          
425300200100086141420001728169200502180000022814050000022814050                 
625300300300046523000910000190000014086717975766439413Louranme Kate             
425300300100000892160007256520200502180000046523000000046523000                 
625300400400085536080910000190000014086716502957938455Loneuven Eduard           
425300400100095398940005533134200502180000042768040000042768040                 
425300400200095398940009834073200502180000042768040000042768040                 
72530022641200502180040050018811671                                             
600700100100089553820910000190000014086719732327336525Mcmema Pedro              
400700100100069719530002955052200502180000044776910000044776910                 
400700100200069719530004651844200502180000044776910000044776910                 
600700200200090364630910000190000014086714434046497630Vema Kate                 
400700200100018696590008105854200502180000022591150000022591150                 
400700200200018696590006607487200502180000022591150000022591150                 
400700200300018696590001686365200502180000022591150000022591150                 
400700200400018696590008779939200502180000022591180000022591180                 
600700300300008101550910000190000014086718306616444659Wrightlilo Susan          
400700300100051952100008588253200502180000008101550000008101550                 
70070022641200502180030070018802000                                             
621300100100094365870910000190000014086716086624235081Vanstel Julia             
421300100100093922990005260524200502180000047182930000047182930                 
421300100200093922990001447410200502180000047182940000047182940                 
621300200200031914680910000190000014086714598165928792Louneuvenlilo Julia       
421300200100081721750006764954200502180000007978670000007978670                 
421300200200081721750007615579200502180000007978670000007978670                 
421300200300081721750006616637200502180000007978670000007978670                 
421300200400081721750001270277200502180000007978670000007978670                 
621300300300046353100910000190000014086710684245330619Veberto Laurence          
421300300100086353860006498746200502180000023176550000023176550                 
421300300200086353860002866776200502180000023176550000023176550                 
621300400400007951120910000190000014086713950044925570Loberto John              
421300400100057936180008808247200502180000002650370000002650370                 
421300400200057936180005328175200502180000002650370000002650370                 
421300400300057936180005786511200502180000002650380000002650380                 
621300500500058933370910000190000014086719459580714546Mcmasura Kate             
421300500100094614160006645104200502180000058933370000058933370                 
621300600600007354020910000190000014086719732393333314Mcmema Pedro              
421300600100019090080007451708200502180000007354020000007354020                 
621300700700085937610910000190000014086714579105784618Esmanman John             
421300700100076802770006033939200502180000028645870000028645870                 
421300700200076802770006093726200502180000028645870000028645870                 
421300700300076802770004129721200502180000028645870000028645870                 
72130022641200502180070160033280977                                             
8999999002264120050218002400500109851604000220                                  
9000222                                                                         
