0          000009630000003500000036                                                                                                                                                                                                                                                                                                                           
110008     1GE CAPITAL EQUIPEMENT FINANCE           GECAPITEQU61119900322                IMM DEFENSE PLAZA               23 27 R DELARIVIERE LEFOULON                                    92800 PUTEAUX                   420450     N19940101CEQFFR21XXX                                                                                                      
110011     1CAISSE NATIONALE D EPARGNE              PTT CNE   0  19871201                                                20 AV DE SEGUR                                                  75700 PARIS                     102000     N19940101PSSTFRPPCNE                                                                                                      
110018     2EFG EUROFINANCIERE D INVESTISSEMENTS SAMEFG       111199710172007063020090830                                15 AV D OSTENDE                 BP 37 MC                        98000 MONACO CEDEX              41614518759N19940101                                                                                                                 
110033     1BNY MELLON ASSET MANAGEMENT INTERNAT LTDBNY MELLON99920090224                                                13 15 BD DE LA MADELEINE                                        75001 PARIS                     023295     N20090331                                                                                                                 
110037     2CREDIT INDUSTRIEL D ALSACE ET LORRAINE  C I A L   118194110012007123120100228                                31 R JEAN WENGER VALENTIN                                       67958 STRASBOURG CEDEX 09       30950030087O19980331                                                                                                                 
110038     1FINANCIERE IMMOBILIERE CALYON           FINIMOLYON61119900716                                                9 QUAI DU PDT PAUL DOUMER                                       92400 COURBEVOIE                418724     N19940101BSUIFRPPXXX                                                                                                      
110050     1STE REUNIONNAISE DE FINT-SOREFI         SOREFI    61119851021                                                5 RUE ANDRE LARDY                                               97438 SAINTE MARIE              456950     N19940101SORFRER1XXX                                                                                                      
110057     1STE BORDELAISE DE CIT IND ET COMMERCIAL SOCBOR    11819411001                                                42 COURS DU CHAPEAU ROUGE       BP 501                          33001 BORDEAUX CEDEX            440800     O19960330CMCIFRP1SBC                                                                                                      
110071     1TRESOR PUBLIC                           TRESORPUBL0  19851201                Direction de la compta publique 139 rue de Bercy                                                75012 PARIS                     458700     N19940101TRPUFRP1XXX                                                                                                      
110088     1STE PROMO ET PART PR COOP ECO - PROPARCOPROPARCO  61119900928                                                5 R ROLAND BARTHES                                              75598 PARIS CEDEX 12            456775     N19940101SPPCFRP1XXX                                                                                                      
110096     1LYONNAISE DE BANQUE LB                  L B       11819411009                                                8 RUE DE LA REPUBLIQUE                                          69001 LYON                      427720     O19970930CMCIFRP1LYBCIC LYONNAISE DE BANQUE                                                                               
110107     1BRED BANQUE POPULAIRE                   B.R.E.D   22119841022                                                18 QUAI DE LA RAPEE                                             75012 PARIS                     024020     N19940101BREDFRPPXXX                                                                                                      
110108     1BAYERISCHE LANDESBANK GIROZENTRALE      B LANDESBK11819900831                                                203 R DU FG ST HONORE                                           75008 PARIS                     022300     N19940101BYLAFRPPXXX                                                                                                      
110128     1INTESA SANPAOLO SPA                     INTESA SAN19920080930                                                23 RUE LINOIS                                                   75015 PARIS                     424130     N19940101BCITFRPPXXX                                                                                                      
110140     1CSSE CIT MUNICIPAL DE MARSEILLE         C MUNICIPA41319841022                                                16 RUE VILLENEUVE                                               13232 MARSEILLE CEDEX 1         315157     N19940101CCMRFR21XXX                                                                                                      
110160     1CREDIT MOBILIER DE MONACO CMM           CMM MONACO41819910418                                                15 AV DE GRANDE BRETAGNE        BP 81                           98000 MONACO CEDEX              311870     N19940101CMMDMCM1XXX                                                                                                      
110178     1BANQUE CHAIX                            B CHAIX   11819411001                                                43 COURS JEAN JAURES                                            84000 AVIGNON                   005200     N19940101CHAIFR2AXXX                                                                                                      
110188     1BANQUE CHALUS                           B CHALUS  11819411106                                                5 PL DE JAUDE                                                   63002 CLERMONT FERRAND          005300     N19940101BCHAFR21                                                                                                         
110206     1CRCAM DU NORD EST                       CRCANOREST22019940627                                                25 RUE LIBERGIER                                                51088 REIMS CEDEX               298820     N19940101AGRIFRPP802                                                                                                      
110207     1BANQUE POPULAIRE RIVES DE PARIS         BPRIVESPAR22119841022                                                76 78 AV DE FRANCE                                              75013 PARIS                     017800     O20060131CCBPFRPPMTG                                                                                                      
110218     1RABOBANK NEDERLAND RABOBANK INTERNATIONARABOBANK  11819910131                                                69 BD HAUSSMANN                                                 75008 PARIS                     433354     N19940101RABOFRPPXXX                                                                                                      
110228     1BANQUE LAYDERNIER                       LAYDERNIER11819411106                                                10 AV DU RHONE                                                  74000 ANNECY                    012800     N19940101LAYDFR2WXXX                                                                                                      
110268     1BANQUE COURTOIS                         B COURTOIS11819411001                                                33 RUE DE REMUSAT                                               31000 TOULOUSE                  006200     N19940101COURFR2TXXXBANQUE COURTOIS                                                                                       
110273     1OCTO FINANCES SA                        OCTOFINAN 91920000330                                                21 AV KLEBER                                                    75016 PARIS                     430615     N20061031OCFIFRP1XXX                                                                                                      
110278     1CAISSE FEDER CIT MUT CENTRE EST EUROPE  CFCM CEE  22219920930                                                34 RUE DU WACKEN                BP 116 R3                       67913 STRASBOURG CEDEX 9        099350     N19940101CMCIFR2ACEE                                                                                                      
110323     1MERRILL LYNCH INTERNATIONAL BANK LIMITEDMLIB      11820080418                                                112 AV KLEBER                   BP 2002 16                      75761 PARIS CEDEX 16            428553     N20080430MLIBFRP1XXX                                                                                                      
110343     1CITIGROUP GLOBAL MARKETS LIMITED        CITIGRMARK91919991018                                                1 5 RUE PAUL CEZANNE                                            75008 PARIS                     127720     N20000731SBILFRP1XXX                                                                                                      
110423     1THE ROYAL BANK OF SCOTLAND              R B S     11819990409                                                8 R LAVOISIER                                                   75008 PARIS                     434110     N19990630RBOSFRP1XXX                                                                                                      
110468     1BANQUE RHONE ALPES                      B RHONALP 11819411016                                                20 22 BD EDOUARD REY                                            38000 GRENOBLE                  019330     N19940101RALPFR2GXXX                                                                                                      
110548     1BANQUE DE SAVOIE                        B SAVOIE  11819420130                                                6 BD DU THEATRE                 BP 109                          73001 CHAMBERY CEDEX            019500     O20000930BSAVFR2CXXX                                                                                                      
110550     1MERCEDES BENZ FINANCIAL SERVICES FR SA  MERCEDES  61119851021                                                                                BP 500                          78590 NOISY LE ROI              428475     N19940101DAFRFR21XXX                                                                                                      
110558     1BANQUE TARNEAUD                         B TARNEAUD11819411030                                                2 A 6 R TURGOT                                                  87000 LIMOGES                   020300     N19940101TARNFR2LXXX                                                                                                      
110638     1CREDIT COMMERCIAL DU SUD OUEST          C C S O   11819901231                                                17 ALLEE JAMES WATT                                             33700 MERIGNAC                  307150     N19940101CCSOFR2BXXX                                                                                                      
110673     1GIMAR FINANCE SCA                       GIMAR FIN 91120000301                                                9 AV DE L OPERA                                                 75001 PARIS                     421052     N20061031GIFSFRP1XXX                                                                                                      
110753     1GEORGET COURTAGE EUROPEEN S A           GEORGET SA91919961011                                                40 RUE EMILE ZOLA                                               33000 BORDEAUX                  420850     N20061031GCEUFR21XXX                                                                                                      
110773     1MARCHE DE TITRES FRANCE (MTS FRANCE)    MTS FRANCE91920000421                                                20 RUE CAMBON                                                   75001 PARIS                     427900     N20061031FMTSFRPPXXX                                                                                                      
110800     1LOCAM LOCATION AUTOMOBILES MATERIEL SAS LOCAM     61119860225                                                29 R LEON BLUM                                                  42000 ST ETIENNE                427445     N19940101LOAAFR21XXX                                                                                                      
110807     1BANQUE POPULAIRE BOURGOGNE FRANCHE COMTEBPBOUFRACO22119841022                                                14 BD DE LA TREMOUILLE          BP 310                          21008 DIJON CEDEX               015750     O19950531CCBPFRPPDJN                                                                                                      
110810     2AUX DU CREDIT FONCIER DE FRANCE         AUXICREFON611198512132007113020100130                                19 rue des Capucines                                            75001 PARIS                     00117043199N19940101                                                                                                                 
110820     1FRUCTIBAIL                              FRUCTIBAIL61119851213                                                30 AV PIERRE MENDES FRANCE                                      75013 PARIS                     420345     N19940101FRUCFRP1XXX                                                                                                      
110860     2FINANCIERE DU CREDIT MUTUEL             FINCREDMUT911199712312006052020091130                                18 RUE DE TILSITT                                               75017 PARIS                     41862045539N19940101FCMUFRP1XXX                                                                                                      
110890     1FACTOBAIL                               FACTOBAIL 61119860430                TOUR FACTO                      18 RUE HOCHE                                                    92988 PARIS LA DEFENSE CEDEX    417970     N19940101FACIFRP1XXX                                                                                                      
110900     1DIFFUCO                                 DIFFUCO   61119860131                                                102 AV DES CHAMPS ELYSEES                                       75008 PARIS                     414750     N19940101DIFFFRP1XXX                                                                                                      
110907     1BANQUE POPULAIRE DU SUD OUEST           BP SUDOUES22119841022                                                10 QUAI DES QUEYRIES                                            33100 BORDEAUX                  018050     O19980531CCBPFRPPBDX                                                                                                      
110918     1CHOLET DUPONT                           CHOLETDUPO61119901228                                                16 PL DE LA MADELEINE                                           75008 PARIS                     122000     N19940101CHDUFRPP                                                                                                         
110920     1SODELEM                                 SODELEM   61119860527                                                119 BD ARISTIDE BRIAND                                          85018 LA ROCHE SUR YON CEDEX    436350     N19940101SODLFR21XXX                                                                                                      
110930     1FONDS REGIONAL GARANT NORD PAS DE CALAISFRG N PDC 61119861126                                                96 R NATIONALE                                                  59800 LILLE                     420050     N19940101FRGNFR21XXX                                                                                                      
110968     1BANQUE AIG                              BANQUE AIG11819901015                                                112 AV KLEBER                   CS 31603                        75773 PARIS CEDEX 16            003560     N19940101AIGAFRPPXXX                                                                                                      
111006     1CRCAM DE CHAMPAGNE BOURGOGNE            CRCACHBO  22020001001                                                269 FBG CRONCELS                                                10000 TROYES                    293700     O20030531AGRIFRPP810                                                                                                      
111008     1S E B SKANDINAVISKA ENSKILDA BANKEN AB  SKANENSKIL11819901031                                                25 RUE BALZAC                                                   75008 PARIS                     435170     N19940101ESSEFRPXXXX                                                                                                      
111018     1BSI MONACO SAM                          BSI MONACO11819950321                                                1 AV ST MICHEL                                                  98000 MONACO                    024140     N19940101BSILMCMCXXX                                                                                                      
111078     1BAIL IMMO NORD                          BAILIMONOR61119901018                TOUR DE LILLE                   60 BD DE TURIN                                                  59777 LILLE EURALILLE           001550     N19940101BIIOFR21XXX                                                                                                      
111088     1UCB LOCABAIL IMMOBILIER                 UCB LOCIMO61119901130                LE METROPOLE                    46 52 RUE ARAGO                                                 92800 PUTEAUX                   458875     N19940101UCLIFRP1XXX                                                                                                      
111128     1NATIXIS LEASE                           NATIXLEASE61119901228                                                30 AV PIERRE MENDES FRANCE                                      75013 PARIS                     430250     N19940101CCBPFRPPLES                                                                                                      
111138     1NATIXIS FACTOR                          NATIXFACTO61119901228                                                30 AV PIERRE MENDES FRANCE                                      75013 PARIS                     430230     N19940101NFACFR21XXX                                                                                                      
111140     1SEDEF (STE EUROP DE DEV DU FINT)        SEDEF     61119850201                ANGLE DU CD153                  AV DE L AUNETTE                                                 91130 RIS ORANGIS               435241     N19940101SSEEFR21XXX                                                                                                      
111143     1DAIWA SECURITIES SB CAPITAL MARKETS     DAIWASECUR99919990330                                                112 AV KLEBER                                                   75016 PARIS                     409200     N20000731DSCRFRP1XXX                                                                                                      
111188     1RCI BANQUE                              RCI BANQUE11819910307                                                14 AV DU PAVE NEUF                                              93168 NOISY LE GRAND CEDEX      433400     N19940101RCINFRPPXXX                                                                                                      
111190     1CSSE GARANTIE DU LOGEMENT LOCATIF SOCIALC G L S   71219860310                                                10 AV LEDRU ROLLIN                                              75579 PARIS CEDEX 12            405880     N19940101CGLLFRP1XXX                                                                                                      
111206     1CRCAM NORD MIDI PYRENEES                CRCAM N MP22020040529                                                219 AV FRANCOIS VERDIER                                         81022 ALBI CEDEX 9              298850     N19940101AGRIFRPP812                                                                                                      
111210     1BANQUE DE REALISATIONS DE GEST ET DE FINREGEFI    11819751128                                                14 RUE ROYALE                                                   75008 PARIS                     018810     N19940101RGFIFRPPXXX                                                                                                      
111228     1DUBLY DOUILHET S A                      DUBLY DOUI91119971121                                                50 BD DE LA LIBERTE                                             59800 LILLE                     415450     N19940101CMCIFRP1DYD                                                                                                      
111230     1LASER COFINOGA                          LASERCOF  61119680411                                                66 RUE DES ARCHIVES                                             75150 PARIS CEDEX 03            426180     N19940101LACOFRP1XXX                                                                                                      
111238     1SWISSLIFE BANQUE PRIVEE                 SWISSLIFEB11819910729                                                7 PL VENDOME                                                    75001 PARIS                     457500     N19940101SWILFRP1XXX                                                                                                      
111248     1ING LEASE FRANCE SA                     ING LEASE 61119910131                COEUR DEFENSE TOUR A LA DEFENSE4110 ESPLANADE DU GAL DE GAULLE                                  92931 PARIS LA DEFENSE CEDEX    423210     N19940101INLFFRP1XXX                                                                                                      
111263     1DRESDNER BANK AG                        DRESDBK AG11819990719                                                5 BD DE LA MADELEINE                                            75001 PARIS                     415400     N19990731DRESFRPXXXX                                                                                                      
111298     1SINOPIA FINANCIAL SERVICES              SINOPIA FS61119971229                IMM ILE DE FRANCE               4 PL DE LA PYRAMIDE                                             92800 PUTEAUX LA DEFENSE 9      436100     N19940101SIFSFRP1XXX                                                                                                      
111306     1CRCAM D ALPES PROVENCE                  CRCAPROVEN22019930430                                                25 CHEMIN DES TROIS CYPRES                                      13000 AIX EN PROVENCE           292320     N19940101AGRIFRPP813                                                                                                      
111307     1CASDEN BANQUE POPULAIRE                 CASDEN BP 22119841022                                                91 COURS DES ROCHES                                             77186 NOISIEL                   121027     N19940101CCBPFRPPCAS                                                                                                      
111315     1CAISSE D EPARGNE PROVENCE ALPES CORSE   C E P A C 22519841022                                                PL ESTRANGIN PASTRE             BP 108                          13254 MARSEILLE CEDEX 6         084500     N19940101CEPAFRPP131CAISSE D EPARGNE PROVENCE ALPES CORSE                                                                 
111318     1AGF PRIVATE BANKING                     AGFPRIVATE61119910930                AGF FINANCE CP T201             20 R LE PELETIER                                                75009 PARIS                     000400     N19940101AGPIFRP1XXX                                                                                                      
111343     1CREDIT SUISSE SECURITIES EUROPE LTD     CITSUISSEC91919991015                                                25 AV KLEBER                                                    75016 PARIS                     315061     N20000731CSEEFRP1XXX                                                                                                      
111353     1PLANTUREUX                              PLANTUREUX91119961011                                                16 AV LOUISON BOBET             BP 86                           94123 FONTENAY SOUS BOIS CEDEX  432700     N20061031PLNTFR21XXX                                                                                                      
111358     1COMPAGNIE FINANCIERE DU CREDIT MUTUEL   C F C M   11820010630                                                1 RUE LOUIS LICHOU                                              29480 LE RELECQ KERHUON         289317     N19940101CMBRFR2BXXX                                                                                                      
111378     1BPN BANCO PORTUGUES DE NEGOCIOS S A     BPNBANPORT11820031027                                                30 AV DE L OPERA                                                75002 PARIS                     023780     N20000831BPNPFRP1XXX                                                                                                      
111379     2HSBC PICARDIE                           HSBC PICAR1181941103020080731                                        3 RUE DE LA SOUS PREFECTURE                                     60202 COMPIEGNE CEDEX           42261630056N19940101                                                                                                                 
111380     1C R H CAISSE DE REFINANCEMENT HABITAT   C REF HABI51119850916                                                35 R LA BOETIE                                                  75008 PARIS                     315070     N19940101CRRHFRP1XXX                                                                                                      
111408     1BANQUE DE WALLIS ET FUTUNA              BQ WALLIS 11819910528                                                RTE DE KAFIKA                   BP 59 MATA UTU                  98600 UVEA (WALLIS ET FUTUNA)   021370     N19940101WAFTWF21XXX                                                                                                      
111425     1CAISSE D EPARGNE NORMANDIE              CEPNORMAND22519911011                                                43 BIS RUE JEANNE D ARC                                         76000 ROUEN                     080150     N19940101CEPAFRPP142CAISSE D EPARGNE BASSE NORMANDIE                                                                      
111438     1BANQUE JEAN PHILIPPE HOTTINGUER ET CIE  BQ JP HOTT11820060629                                                63 RUE DE LA VICTOIRE                                           75009 PARIS                     123000     N19940101HRFRFRP1XXX                                                                                                      
111449     1BANQUE THEMIS                           THEMIS    11819741025                                                20 RUE TREILHARD                                                75008 PARIS                     020400     N19940101BDEIFRPP                                                                                                         
111453     1SIGMA TERME                             SIGMATERME91919961011                                                83 AV DE LA GRANDE ARMEE                                        75016 PARIS                     435830     N20061031SITRFRP1XXX                                                                                                      
111468     1BANQUE PATRIMOINE ET IMMOBILIER (B P I) B P I     12919910628                                                4 RUE DU GENERAL FOY                                            75378 PARIS CEDEX 08            015135     N19940101PAIMFRP1XXX                                                                                                      
111470     1NATIXIS COFICINE                        N COFICINE61119490811                                                6 RUE DE L AMIRAL HAMELIN                                       75116 PARIS                     430225     N19940101COCNFRP1XXX                                                                                                      
111478     1HPC                                     HPC       91919961011                                                22 RUE DES CAPUCINES                                            75002 PARIS                     422540     N20061031HPCPFRP1XXX                                                                                                      
111490     1INTERFIMO                               INTERFIMO 61119691016                                                46 BD DE LA TOUR-MAUBOURG                                       75007 PARIS                     424110     N19940101INRFFRP1XXX                                                                                                      
111498     1BNP PARIBAS PRIVATE BANK MONACO         BNPPPBKMON11819960918                                                15 17 AV D OSTENDE                                              98000 MONACO                    023275     N19940101BPPBMCMCXXX                                                                                                      
111518     1STATE STREET BANQUE SA                  STATE ST  11819920128                IMM DEFENSE PLAZA               23 25 RUE DELARIVIERE LEFOULLON                                 92800 PUTEAUX                   437270     N19940101SBOSFRP1XXX                                                                                                      
111550     1CSSE CIT MUNICIPAL DE TOULOUSE          C MUNICIPA41319841022                                                29 R DES LOIS                   BP 333                          31006 TOULOUSE CEDEX            315190     N19940101CCUOFR21XXX                                                                                                      
111600     1CMCIC LEASE                             CMCICLEASE61119850814                                                48 RUE DES PETITS CHAMPS                                        75002 PARIS                     128000     N19940101CMCIFRP1LEA                                                                                                      
111628     1BANQUE DU CREDIT MUT ILE DE FRANCE BCMI BQE BCMI  11819910930                                                34 RUE DU WACKEN                                                67000 STRASBOURG                006295     N19940101CMCIFR21BCI                                                                                                      
111643     1FRANK RUSSELL COMPANY LTD               FRUSSELLCO99920000223                                                6 R CHRISTOPHE COLOMB                                           75008 PARIS                     420270     N20000731FRRCFRP1XXX                                                                                                      
111668     1BANQUE GESTION ED DE ROTHSCHILD MONACO  BG ROTHSMC11819911231                                                2 AV DE MONTE CARLO             BP 317                          98000 MONACO CEDEX              010250     N19940101BERLMCMCXXX                                                                                                      
111678     1DE LAGE LANDEN LEASING SAS              DLLLEASING61119961230                TOUR MANHATTAN                  5 6 PL DE L IRIS                                                92026 PARIS LA DEFENSE CEDEX    411200     N19940101LLLSFRP1XXX                                                                                                      
111689     1CITIBANK INTERNATIONAL PLC - CITIGROUP  CITI PLC  11819941130                                                1 5 RUE PAUL CEZANNE                                            75008 PARIS                     127715     N19940101CITIFRPPXXX                                                                                                      
111706     1CRCAM CHARENTE-MARITIME DEUX-SEVRES     CRCA CMDS 22019950403                                                12 BD GUILLET MAILLET           BP 42                           17117 SAINTES CEDEX             293900     N19940101AGRIFRPP817                                                                                                      
111720     1HSBC EPARGNE ENTREPRISE (FRANCE)        HSBC EE   61119671222                                                15 R VERNET                                                     75008 PARIS                     422605     N19940101HEEFFRP1XXX                                                                                                      
111729     1BNP PARIBAS GUYANE                      BNPP GUYA 11819570621                                                2 PL VICTOR SCHOELCHER          BP 35                           97321 CAYENNE CEDEX             023260     N19940101BNPAGFGXXXX                                                                                                      
111748     1CAIXA D ESTALVIS DE CATALUNYA           C CATALUN 11819920930                                                4 BD CLEMENCEAU                                                 66000 PERPIGNAN                 120540     N19940101CESCFR2XXXX                                                                                                      
111749     1BANQUE DES ILES SAINT PIERRE ET MIQUELONB ST PIERR12519570731                                                2 RUE JACQUES CARTIER                                           97500 SAINT PIERRE ET MIQUELON  011000     N19940101BDILPMPMXXXBANQUE DES ILES ST PIERRE ET MIQUELON                                                                 
111768     1MORGAN STANLEY ET CO INTERNATIONAL PLC  MORGANSTAN91920011001                                                61 RUE DE MONCEAU                                               75008 PARIS                     429650     N19940101MSFRFR31XXX                                                                                                      
111769     1SIIC DE PARIS                           SIIC PARIS61120030127                                                184 R DE LA POMPE                                               75116 PARIS                     435900     N19940101SIPIFRP1XXX                                                                                                      
111778     1CREDIT DU MAROC                         C MAROC   11819921218                                                13 AV DE CLICHY                                                 75017 PARIS                     311300     N19940101CDMAFRPXXXX                                                                                                      
111790     1COFACREDIT                              COFACREDIT61119680614                TOUR FACTO                      18 RUE HOCHE                                                    92800 PUTEAUX                   288850     N19940101COFEFR21XXX                                                                                                      
111808     1BANQUE FEDERATIVE DU CREDIT MUTUEL      B F C M   11819920930                                                34 RUE DU WACKEN                BP 412                          67002 STRASBOURG CEDEX          007780     N19940101CMCIFRPAXXX                                                                                                      
111818     1GE COMMERCIAL DISTRIBUTION FINANCE S A  GECOMDISFI61119920424                IMM DEFENSE PLAZA               23 27 R DELARIVIERE LEFOULLON                                   92064 PARIS LA DEFENSE CEDEX    420520     N19940101CODFFRP1XXX                                                                                                      
111830     1INTER COOP                              INTER COOP61120030630                                                33 R DES TROIS FONTANOT                                         92002 NANTERRE                  423630     N19940101INOOFR21XXX                                                                                                      
111873     1VANILLA TECHNOLOGY                      VANILLA TE91920001103                                                22 RUE DES CAPUCINES                                            75002 PARIS                     464084     N20061031VATEFRP1XXX                                                                                                      
111899     1BANQUE ECONOMIE COMMERCE ET MONETIQUE   BECM      11819920930                                                34 RUE DU WACKEN                                                67913 STRASBOURG CEDEX 9        006770     N19940101CMCIFRP1BEC                                                                                                      
111907     1BANQUE POPULAIRE DU MASSIF CENTRAL      BPMASCENTR22119841022                                                18 BD JEAN MOULIN                                               63002 CLERMONT FERRAND CEDEX    017080     O20040731CCBPFRPPCFD                                                                                                      
111938     1AGCO FINANCE SNC                        AGCOFINANC61119921210                                                AV BLAISE PASCAL                BP 90743                        60007 BEAUVAIS CEDEX            000250     N19940101AGFCFR21XXX                                                                                                      
111960     1CIT FRANCE SAS                          CITFRANCE 61119981228                LE PATIO DE RUEIL               104 AV ALBERT 1ER                                               92563 RUEIL MALMAISON CEDEX     127666     N19940101CGFFFR21XXX                                                                                                      
111978     1FACTOCIC                                FACTOCIC  61119921026                TOUR FACTO                      18 RUE HOCHE                                                    92800 PUTEAUX                   417980     N19940101CMCIFRP1FAC                                                                                                      
111989     1BANQUE POUYANNE                         B POUYANNE11819411001                                                12 PL D ARMES                                                   64300 ORTHEZ                    018500     N19940101POUYFR21XXX                                                                                                      
111998     1BAYERISCHE HYPO UND VEREINSBANK AG      HYPOVEREIN11819921231                                                34 RUE PASQUIER                                                 75008 PARIS                     022275     N19940101HYVEFRPPXXX                                                                                                      
111999     1UBS MONACO                              UBS MONACO11819570410                                                2 AV DE GRANDE BRETAGNE         BP 189                          98007 MONACO CEDEX              458859     N19940101UBSWMCMXXXX                                                                                                      
112006     1CRCAM DE LA CORSE                       CRCA CORSE22019841022                                                1 AV NAPOLEON III               BP 308                          20176 AJACCIO CEDEX             294200     N19940101AGRIFRPP820                                                                                                      
112008     1SOFISCOP SUD EST                        SOFISCOPSE69919920914                                                8 R DES FABRES                                                  13001 MARSEILLE                 436885     N19940101SOSTFR21XXX                                                                                                      
112043     1BRYAN GARNIER ET CO LIMITED             BRYANGARNI99820070125                                                33 AV DE WAGRAM                                                 75017 PARIS                     024100     N20000731BRGAFRP1XXX                                                                                                      
112050     1CREDIT MODERNE OCEAN INDIEN             C MOD O IN61119860206                                                22 R PIERRE AUBERT STE CLOTILDE                                 97400 SAINT DENIS               311940     N19940101CMOIFR21XXX                                                                                                      
112088     1BANCA CARIGE CASSA RISPARMIO DI GENOVA  BCA CARIGE11819940708                                                8 RUE MACCARANI                 BP 1271                         06005 NICE CEDEX 1              001725     N19940731CRGEFR2XXXX                                                                                                      
112110     1CMV MEDIFORCE                           CMVMEDIFOR61119850916                                                1 BD HAUSSMANN                                                  75009 PARIS                     288750     N19940101CMVMFRP1XXX                                                                                                      
112128     1STE CENTRALE PR FINT IMMOBILIER SOCFIM  SOCFIM    62519930524                                                5 RUE MASSERAN                                                  75007 PARIS                     441370     N19940101SOPMFRP1XXX                                                                                                      
112135     1CAISSE D EPARGNE BOURGOGNE FRANCHE COMTECEBOURCOMT22519911011                                                1 ROND POINT DE LA NATION       BP 170                          21005 DIJON CEDEX               057000     N19940101CEPAFRPP213CAISSE D EPARGNE BOURGOGNE FRANCHE COMTE                                                              
112138     1CATERPILLAR FINANCE FRANCE S.A.         CATFINANCE61119930203                                                2 BD DE LA LIBERATION                                           93200 SAINT-DENIS               121031     N19940101CAFFFR21XXX                                                                                                      
112148     1SG OPTION EUROPE                        SGOPTEUROP91920001220                TOUR SOCIETE GENERALE           17 COURS VALMY                                                  92972 PARIS LA DEFENSE CEDEX    435298     N19940101OPEUFRP1XXX                                                                                                      
112149     1BANQUE DE POLYNESIE                     POLYBANK  11819721226                                                BD POMARE                       BP 530                          98714 PAPEETE (POLYNESIE FSE)   015300     N19940101BPOLPFTPXXX                                                                                                      
112169     1BANQUE DE LA REUNION                    B REUNION 12519570621                                                27 RUE JEAN CHATEL                                              97462 SAINT DENIS               019300     N19940101REUBRERXXXXBANQUE DE LA REUNION                                                                                  
112173     1EDMOND DE ROTHSCHILD FINANCIAL SERVICES ED ROTH FI91920001229                                                47 RUE DU FBG SAINT HONORE                                      75008 PARIS                     416120     N20061031RFSIFRP1XXX                                                                                                      
112179     1BANQUE BIA                              B I A     11819741025                                                67 AV FRANKLIN ROOSEVELT                                        75008 PARIS                     004320     N19940101BIARFRPPXXX                                                                                                      
112198     1NEWEDGE GROUP                           NEWEDGE GR11819930528                                                52 60 AV DES CHAMPS ELYSEES                                     75008 PARIS                     430360     N19940101FIMAFRPPXXX                                                                                                      
112206     1CRCAM DES COTES D ARMOR                 CRCA ARMOR22019841022                                                LA CROIX TUAL                   BP 15                           22440 PLOUFRAGAN CEDEX          294250     N19940101AGRIFRPP822                                                                                                      
112208     2UNICREDIT BANCA DI ROMA SPA             UNICR BROM118200207232008110120100331                                66 RUE PIERRE CHARON                                            75008 PARIS                     45890013528N19940101BROMFRPPXXX                                                                                                      
112225     2CAISSE D EPARGNE DE BRETAGNE            CEBRETAGNE2251991101120080411                                        4 RUE DU CHENE GERMAIN          BP 8                            35511 CESSON SEVIGNE CEDEX      05805014445N19940101CEPAFRPP222                                                                                                      
112228     2CIT IMMOB FRANCE EST                    CIFEST    529199307302008112820100331                                12 AV DES VOSGES                                                67084 STRASBOURG CEDEX          12770012338N19940101CIRSFR21XXX                                                                                                      
112239     1BANQUE DE TAHITI                        BDT       12519680903                                                38 RUE FRANCOIS CARDELLA        BP 1602                         98713 PAPEETE (POLYNESIE FRSE)  020200     N19940101CEPAPFTPXXXBANQUE DE TAHITI                                                                                      
112240     1ALLIANZ BANQUE                          ALLIANZ BQ11819991217                                                20 PL DE SEINE                                                  92400 COURBEVOIE                000530     N19940101AGFBFRCCXXXALLIANZ BANQUE                                                                                        
112248     1FINANC CIT IMMOB PICARDIE CHAMP ARDENNE FCIPCA    52919930630                LES JARDINS DE L HOTEL DIEU     35 RUE ARNAUD BISSON                                            02100 ST QUENTIN                418610     N19940101FCIPFR21XXX                                                                                                      
112249     1MEDICAPITAL BANK PLC                    MEDICAP BK11820080201                                                3 RUE BOUDREAU                                                  75009 PARIS                     428270     N19940101BMCEFRPPXXX                                                                                                      
112258     1FINANCIERE IMMOBILIER SUD ATLANTIQUE    FI SUDATLA52919930630                                                11 COURS DU 30 JUILLET                                          33000 BORDEAUX                  418723     N19940101FISLFR21XXX                                                                                                      
112260     2BARCLAYS FINANCEMENTS IMMOB - BARFIMMO  BARFIMMO  6111960052420081228                                        183 AV DAUMESNIL                                                75012 PARIS                     02150030588N19940101BAMMFRP1XXX                                                                                                      
112280     1SOCRAM BANQUE                           SOCRAM    11819680229                                                2 RUE DU 24 FEVRIER                                             79092 NIORT CEDEX 9             436340     N19940101SORMFR21XXXSOCRAM BANQUE                                                                                         
112298     1FINANCIERE REGIONALE CRED IMMOB BRETAGNEFIREGDECIB52919930630                                                9 R DU 71E REGIMENT D INFANTERIE                                22000 SAINT BRIEUC              418755     N19940101FRCIFR21XXX                                                                                                      
112308     1FINANCIERE REGIONALE CRED IMMOB NORD PDCFIRCINNOPA52919930630                                                7 RUE DE TENREMONDE             BP 9                            59005 LILLE CEDEX               418756     N19940101CIRNFR21XXX                                                                                                      
112318     1FINANCIERE REGIONALE CREDITS IMMOB EST  FINRECIEST52719930630                                                2 place Saint-Martin                                            57000 METZ                      418759     N19940101FRCOFR21XXX                                                                                                      
112319     2BONNASSE LYONNAISE DE BANQUE            BONNASSELB1181941100120081231                                        448 AV DU PRADO                                                 13008 MARSEILLE                 02340010096O19970930CMCIFRP1BLB                                                                                                      
112328     1CIF RHONE ALPES AUVERGNE                CIF RAA   52919930630                                                93 95 RUE VENDOME                                               69006 LYON                      127550     N19940101                                                                                                                 
112338     1CREDIT IMMOBILIER DE FRANCE CENTRE EST  CIF C EST 52919930630                                                9 BD REMBRANDT                                                  21000 DIJON                     309318     N19940101FRHBFR21XXX                                                                                                      
112348     1CREDIT IMMOB FRANCE BRETAGNE ATLANTIQUE CIF BRE AT52919930630                                                5 ET 7 PL DE LA LIBERATION                                      56000 VANNES                    309316     N19940101CIRBFR21XXX                                                                                                      
112358     2CIF PAYS DE LA LOIRE                    CIFPAYLOIR529199306302008070220091031                                17 RUE DU CALVAIRE              BP 80401                        44004 NANTES CEDEX 1            12752012418N19940101                                                                                                                 
112368     1CREDIT IMMOBILIER DE FRANCE SUD         CIFSUD    52919930630                IMMEUBLE ARCHE JACQUES COEUR    222 PL ERNEST GRANIER           CS 70101                        34961 MONTPELLIER CEDEX 2       309355     N19940101                                                                                                                 
112378     1CIT IMMOB FRANCE MIDI PYRENEES FIR REG  CI MIDIPYR52919930630                LES ESPACES DE LA GRANDE PLAINE 2 IMPASSE HENRI PITOT                                           31079 TOULOUSE CEDEX            309310     N19940101CIFDFR21XXX                                                                                                      
112380     2STE PR FAVOR ACCES A PROP IMMOB SOFAPI  SOFAPI    611195911172004052720100228                                137 R VICTOR HUGO                                               92687 LEVALLOIS PERRET CEDEX    44590026630N19940101                                                                                                                 
112388     2CREDIT IMMOBILIER FRANCE FINAN RHONE AINCIFRHONAIN527199306302007122420100130                                93 95 R VENDOME                                                 69306 LYON                      30932212328N19940101                                                                                                                 
112398     1CREDIT IMMOBILIER FRANCE CENTRE OUEST   CIFCTREOUE52919930630                                                11 RUE ALBIN HALLER                                             86000 POITIERS                  309319     N19940101CIFEFR21XXX                                                                                                      
112406     1CRCAM CHARENTE PERIGORD                 CRCACHAPER22019841022                                                RUE D EPAGNAC                                                   16800 SOYAUX                    293920     N19940101AGRIFRPP824                                                                                                      
112418     1CREDIT IMMOBILIER DE FRANCE OUEST       CIF OUEST 52919930630                                                14 RUE DE LOURMEL                                               44000 NANTES                    309330     N19940101CIFRFR21XXX                                                                                                      
112420     1CSSE CIT MUNICIPAL DE REIMS             C.MUNICIPA41319841022                                                5 R HENRI JADART                                                51100 REIMS CEDEX               315175     N19940101CCMSFR21XXX                                                                                                      
112428     1CREDIT IMMOBILIER DE FRANCE MEDITERRANEECIFM      52919930630                                                7 RUE JEAN FIOLLE                                               13006 MARSEILLE                 309325     N19940101CIRDFR21XXX                                                                                                      
112438     1SOFIAP-STE FINAN PR ACCESSION PROPRIETE SOFIAP    52919930630                                                7 RUE DE LA PIERRE LEVEE                                        75011 PARIS                     436550     N19940101SSFAFRP1XXX                                                                                                      
112448     1BARCLAYS BANK PLC MONACO                BARCL MONA11819930630                                                31 AV DE LA COSTA                                               98000 MONACO                    021480     N19940101BARCMCMXXXX                                                                                                      
112453     1ODDO CONTREPARTIE                       ODDOCONTRE91919961011                                                12 BD DE LA MADELEINE                                           75009 PARIS                     430620     N20061031ODDOFRPPXXX                                                                                                      
112468     1BANQUE CANTONALE DE GENEVE (FRANCE) S A BCGF      11819950308                LE CESAR                        20 PL LOUIS PRADEL                                              69001 LYON                      004765     N19940101BCGEFR21XXX                                                                                                      
112478     1FCE BANK PLC                            FCE BANK  11119930901                                                34 RUE DE LA CROIX DE FER                                       78174 ST GERMAIN EN LAYE CEDEX  418100     N19940101                                                                                                                 
112489     1ALFABANQUE                              ALFABANQUE11819611130                                                17 BD HAUSMANN                                                  75009 PARIS                     000520     N19940101ALPBFRP1XXX                                                                                                      
112500     1STE DE FINT DE LA MEUNERIE              SOFIMEUNER61119590107                                                QU DU GAL SARRAIL               BP 12                           10400 NOGENT SUR SEINE CEDEX    446420     N19940101SOIEFR21XXX                                                                                                      
112506     1CRCAM FRANCHE COMTE                     CRCAFRACOM22019920908                                                11 AV ELISEE CUSENIER                                           25084 BESANCON CEDEX 9          295220     N19940101AGRIFRPP825                                                                                                      
112508     1BANCO GUIPUZCOANO SA                    B GUIPUZCO11820040504                                                25 BD DU GAL DE GAULLE                                          64700 HENDAYE                   002225     N19940101BGUIFR21XXX                                                                                                      
112518     1CAJA AHOR MONT PIED GUIPUZCOA SEBA KUTXAKUTXA GIPU11819931231                                                26 RUE THIERS                                                   64100 BAYONNE                   120600     N19940101CAOPFR21XXX                                                                                                      
112543     1CANTOR FITZGERALD EUROPE                CANTOR FIT99920060601                                                62 RUE DE RICHELIEU                                             75002 PARIS                     120800     N20060630CFILFRP1XXX                                                                                                      
112548     1AXA BANQUE                              AXA BANQUE11820021231                                                26 RUE DROUOT                                                   75009 PARIS                     001275     N19940101AXABFRPPXXX                                                                                                      
112549     1LOCINDUS S A                            LOCIND SA 62519690912                                                19 RUE DES CAPUCINES                                            75001 PARIS                     427600     N19940101LCNDFRP1XXX                                                                                                      
112558     1VFS FINANCE FRANCE                      VFS FINAN 61119931022                IMM KUPKA C                     14 R HOCHE                                                      92039 PARIS LA DEFENSE CEDEX    464150     N19940101VFFFFRP1XXX                                                                                                      
112568     1PARIBAS DERIVES GARANTIS S N C PDG      PARIBASPDG61119940110                                                41 AV DE L OPERA                                                75002 PARIS                     431990     N19990930PADGFRP1XXX                                                                                                      
112579     1BANQUE BCP                              BQUE BCP  12520010401                                                14 AV FRANKLIN ROOSEVELT                                        75008 PARIS                     004270     N19940101BPSMFRPPXXXBANQUE BCP                                                                                            
112589     1BANCO BPI                               BANCO BPI 11819740315                                                31 AV DE L OPERA                                                75001 PARIS                     002000     N19940101BBPIFRPPXXX                                                                                                      
112619     1CAIXA GERAL DE DEPOSITOS S A            CAIXAGERAL11819740510                                                38 RUE DE PROVENCE                                              75009 PARIS                     120550     O20030430CGDIFRPPXXX                                                                                                      
112648     1SG EURO C T                             SG EURO CT91119970829                                                52 RUE DE LA VICTOIRE                                           75009 PARIS                     435295     N19940630SGEUFRP1XXX                                                                                                      
112658     1EULER HERMES SFAC CREDIT                EULER SFAC61119940114                                                1 R EULER                                                       75008 PARIS                     417700     N19980630EHSCFR2PXXX                                                                                                      
112668     1SOFRAFI                                 SOFRAFI   61119931230                                                59 avenue de Chatou                                             92053 RUEIL MALMAISON CEDEX     436960     N19940101SORRFR21XXX                                                                                                      
112670     1STE FIRE ET MOBILIERE                   FIMOBILIER61119891229                                                103 AV DES CHAMPS ELYSEES                                       75008 PARIS                     449400     N19940101SOIBFRP1XXX                                                                                                      
112739     1CREDIT FONCIER DE MONACO                CF MONACO 11819451004                                                11 BD ALBERT 1ER                                                98000 MONACO CEDEX              308600     N19940101CFMOMCMXXXX                                                                                                      
112748     1SOGEFINANCEMENT                         SOGEFINAN 61119940331                                                59 AV CHATOU                                                    92500 RUEIL MALMAISON           437115     N20020228SOSNFR21XXX                                                                                                      
112749     1NATIXIS BAIL                            NATIX BAIL61119740315                                                30 AV PIERRE MENDES FRANCE                                      75013 PARIS                     430220     N19940101NABIFRP1XXX                                                                                                      
112773     1CLICKOPTIONS                            CLICKOPTIO91920010130                TOUR SG                         17 COURS VALMY                                                  92987 PARIS LA DEFENSE CEDEX    127810     N20010331CLIKFRP1XXX                                                                                                      
112779     1BRED COFILEASE                          BREDCOFILE11820000101                                                18 QUAI DE LA RAPEE                                             75012 PARIS                     024025     N19940101BROLFRP1XXX                                                                                                      
112798     1UNION DE BANQUES SUISSES                U B SUISSE11819940520                                                65 R DE COURCELLES                                              75008 PARIS                     459700     N19940531UBSBFRP1XXX                                                                                                      
112818     1INST PR FINT CINE ET IND CULT I F C I C I F C I C 61119960530                                                46 AV VICTOR HUGO                                               75116 PARIS                     423217     N19960531IFCIFRP1XXX                                                                                                      
112828     1STE FIRE ENTREPRISES DU GARD SOFIGARD   SOFIGARD  61119940526                                                13 BIS BD TALABOT                                               30039 NIMES CEDEX 1             448120     N19940531SFEGFR21XXX                                                                                                      
112853     1EURASIA FINANCE                         EURASIA   91119980123                                                19 R D ANTIN                                                    75002 PARIS                     417720     N20061031EUFEFRP1XXX                                                                                                      
112860     1MEDIATIS                                MEDIATIS  61119610131                                                66 RUE DES ARCHIVES                                             75003 PARIS                     428250     N19940101MEDAFRP1XXX                                                                                                      
112869     1BANQUE ACCORD                           BQ ACCORD 11819421209                                                40 AV DE FLANDRE                BP 81                           59964 CROIX CEDEX               003550     N19940101BACCFRP1XXX                                                                                                      
112879     1BANQUE DELUBAC ET CIE                   B DELUBAC 11819430527                                                16 PL SALEON TERRAS             BP 53                           07160 LE CHEYLARD CEDEX         006600     N19940101DELUFR22XXX                                                                                                      
112898     1ARCA BANQUE DU PAYS BASQUE S A          ARCA BQUE 11819940929                                                16 RUE ALBERT 1ER                                               64100 BAYONNE                   001020     N19941031ARPAFR21XXX                                                                                                      
112906     1CRCAM DU FINISTERE                      CRCAFINIST22019841022                                                7 ROUTE DU LOCH                                                 29555 QUIMPER CEDEX 9           295200     N19940101AGRIFRPP829                                                                                                      
112938     1SUD OUEST BAIL STE IMMOB PR COM ET IND  SOB       61119950929                                                25 COURS DU MARECHAL FOCH                                       33000 BORDEAUX                  457250     N19950930SOBOFR21XXX                                                                                                      
112939     1BANQUE DUPUY DE PARSEVAL                DUPUY PARS11819420130                                                10 RUE DU GAL DE GAULLE                                         34200 SETE                      006700     N19940101BDUPFR2SXXX                                                                                                      
112978     1JCB FINANCE                             JCB FINANC61119941129                LE METROPOLE LA DEFENSE         46 52 RUE ARAGO                                                 92800 PUTEAUX                   424242     N19941130FIGTFRP1XXX                                                                                                      
112988     1MF GLOBAL SA                            MFGLOBALSA91119971231                LE CENTORIAL                    16 18 RUE DU 4 SEPTEMBRE                                        75002 PARIS                     428570     N19941231MAILFRP1XXX                                                                                                      
113018     1BATIROC BRETAGNE PAYS DE LOIRE          BATIROC PL62519950710                                                13 RUE LA PEROUSE               BP 31715                        44017 NANTES CEDEX 01           022100     N19950731BAYLFR21XXX                                                                                                      
113020     1UNION IND ET COM DE FRANCE UNINCOFRA    UNINCOFRA 61119460912                                                27 R DE LA CHAUSSEE D ANTIN                                     75009 PARIS                     462400     N19940101UICFFRP1XXX                                                                                                      
113028     1STE GESTION FONDS GARANTIE OUTRE MER    SOGEFOM   61119950224                                                5 R ROLAND BARTHES                                              75598 PARIS CEDEX 12            452350     N19950228SGFGFRP1XXX                                                                                                      
113038     1FIDEM                                   FIDEM     61119950628                                                1 BD HAUSSMANN                                                  75009 PARIS                     418320     N19950630FIEMFRP1XXX                                                                                                      
113070     1CM CIC BAIL                             CM CICBAIL61119661223                                                12 RUE GAILLON                                                  75002 PARIS                     127900     N19940101CMCIFRP1BAE                                                                                                      
113078     1BNP PARIBAS GUADELOUPE                  BNPP GUAD 11819950515                                                1 BD HAUSSMANN                                                  75009 PARIS                     023250     N19950531BNPAGPGXXXX                                                                                                      
113088     1BNP PARIBAS MARTINIQUE                  BNPP MART 11819950515                                                1 BD HAUSSMANN                                                  75009 PARIS                     023270     N19950531BNPAMQMXXXX                                                                                                      
113098     1STE FIRE MONEGASQUE DE CREDIT - COGENEC COGENEC   61119950816                                                26 BD DU JARDIN EXOTIQUE        BP 109                          98007 MONACO CEDEX              449450     N19950831SFMCMCM1XXX                                                                                                      
113106     1CRCAM DE TOULOUSE ET DU MIDI TOULOUSAIN CRCATOULOU22019841022                                                6 7 PL JEANNE D ARC             BP 325                          31005 TOULOUSE CEDEX            300600     O20010831AGRIFRPP831                                                                                                      
113118     1LBS LANDESBAUSPARKASSE BADEN WURTTEMBERGLBS LANDES11819950601                                                2 QUAI KLEBER                                                   67000 STRASBOURG                426220     N19950531LBBLFR21XXXLBS LANDESBAUSPARKASSE BADEN WURTTEMBERG                                                              
113128     1COFICA BAIL                             COFI BAIL 61119950612                                                1 BD HAUSSMANN                                                  75009 PARIS                     288910     N19950630COAIFRP1XXX                                                                                                      
113135     1CAISSE D EPARGNE DE MIDI PYRENEES       CEMIDIPYRE22519910926                                                42 RUE DU LANGUEDOC             BP 629                          31023 TOULOUSE CEDEX            077870     N19940101CEPAFRPP313CAISSE D EPARGNE DE MIDI PYRENEES                                                                     
113148     1DEXIA CLF BANQUE                        CLF BANQUE11819950728                TOUR DEXIA LA DEFENSE 2         1 PASSERELLE DES REFLETS                                        92913 LA DEFENSE CEDEX          414392     N19950731CLBQFRCCXXX                                                                                                      
113149     1BANQUE EDEL SNC                         BQ EDELSNC11819420108                PARC DE LA PLAINE               5 AV MARCEL DASSAULT            BP 65806                        31505 TOULOUSE CEDEX 5          006780     N19940101EDELFRP1XXX                                                                                                      
113150     1LIXXBAIL                                LIXXBAIL  61119681118                                                1 ET 3 R DU PASSEUR DE BOULOGNE                                 92861 ISSY LES MOULINEAUX CEDEX9426800     N19940101LIXBFRP1                                                                                                         
113158     1FRANCE ACTIVE GARANTIE FAG S A          FAG S A   61119950918                                                37 R BERGERE                                                    75009 PARIS                     420200     N19950930FAGFFRP1XXX                                                                                                      
113168     1BANQUE PSA FINANCE                      BANQUE PSA11819950726                                                75 AV DE LA GRANDE ARMEE                                        75016 PARIS                     018600     N19950731PSABFRP1XXX                                                                                                      
113179     1BANQUE FIDUCIAL                         BFIDUCIAL 12519420108                                                38 RUE DU SERGENT MICHEL BERTHETBP 412                          69338 LYON CEDEX 09             007790     N19940101FIDCFR21XXX                                                                                                      
113188     1B CAPITAL                               B CAPITAL 91119971231                                                21 BD HAUSSMANN                                                 75009 PARIS                     022460     N19950731CPPTFRP1XXX                                                                                                      
113198     1FRANKLIN TEMPLETON FRANCE S A           FRANKTEMPL91119971231                                                16 18 AV GEORGE V                                               75008 PARIS                     420260     N19951130FRTFFRP1XXX                                                                                                      
113210     1CREDIT AGRICOLE LEASING                 CALEASE   61119690626                                                1 ET 3 R DU PASSEUR DE BOULOGNE                                 92861 ISSY LES MOULINEAUX CDX 9 306530     N19940101AGRIFRP1LEA                                                                                                      
113220     1STE COOP RENOVATION EQUIP DU COM SOCORECSOCOREC   61119640522                                                77 R DE LOURMEL                                                 75015 PARIS                     442900     N19940101SCREFRP1XXX                                                                                                      
113248     1SOFRACEM                                SOFRACEM  61119951218                                                20 AV GEORGES POMPIDOU                                          92300 LEVALLOIS PERRET          436953     N19951231SOFEFRP1XXX                                                                                                      
113259     1BANQUE KOLB                             B KOLB    11819660913                                                1 ET 3 PL DU GAL DE GAULLE                                      88500 MIRECOURT                 012600     N19940101KOLBFR21XXX                                                                                                      
113279     1AFFINE                                  AFFINE    61119710528                                                4 SQUARE EDOUARD VII                                            75009 PARIS                     000177     N19940101AFFIFRP1XXX                                                                                                      
113298     1BANQUE COM DU MARCHE NORD EUROPE BCMNE  BCMNE     11820030725                                                4 PL RICHEBE                                                    59800 LILLE                     005500     N19951231CMCIFR21BCM                                                                                                      
113306     1CRCAM D AQUITAINE                       CRCAAQUITA22020010521                                                304 BD DU PDT WILSON                                            33076 BORDEAUX CEDEX            293000     N19940101AGRIFRPP833                                                                                                      
113310     2VOLKSWAGEN FINANCE SA                   VWFINANCE 611196404152008030320090531                                11 AV DE BOURSONNE              BP 61                           02601 VILLERS COTTERETS CEDEX   46413015128N19940101                                                                                                                 
113335     1CAISSE EPARG AQUITAINE POITOU CHARENTES CEAQPOITCH22519891019                                                61 RUE DU CHATEAU D EAU                                         33076 BORDEAUX CEDEX            050540     N19940101CEPAFRPP333CAISSE D EPARGNE AQUITAINE POITOU CHAREN                                                              
113338     1KBL MONACO PRIVATE BANKERS              KBL MONACO11819960125                                                8 AV DE GRANDE BRETAGNE                                         98005 MONACO CEDEX              424450     N19960229KBLXMCMCXXX                                                                                                      
113343     1J P MORGAN SECURITIES LTD               JP MORGAN 91920010514                                                14 PL VENDOME                                                   75001 PARIS                     424296     N20081031                                                                                                                 
113360     1CIE GENERALE DE GARANTIE                COGEGARANT61119641106                                                157 BD HAUSSMANN                                                75008 PARIS                     126325     N19940101COGGFRP1XXX                                                                                                      
113368     1SG PRIVATE BANKING (MONACO)             SGPBMONACO11819960701                IMM REGINA                      13 15 BD DES MOULINS                                            98000 MONACO                    435299     N19960731SGBTMCMCXXX                                                                                                      
113369     1BANQUE MARTIN MAUREL                    MARTIMAURE11819640306                                                43 RUE GRIGNAN                                                  13006 MARSEILLE                 013500     N19940101BMMMFR2AXXX                                                                                                      
113379     1BANQUE MARZE                            B MARZE   11819431118                                                AV DE ROQUA                     BP 76                           07205 AUBENAS CEDEX             013530     N19940101BMRZFR21XXX                                                                                                      
113390     1UNION FIRE PR DEV ECON CEREAL UNIGRAINS UNIGRAINS 61119641204                                                23 AV DE NEUILLY                                                75116 PARIS                     461500     N19940101UFDCFRP1XXX                                                                                                      
113400     1FC FRANCE                               FC FRANCE 61119550705                Z A TRAPPES ELANCOURT           6 RUE NICOLAS COPERNIC                                          78190 TRAPPES                   418115     N19940101FRAEFR21XXX                                                                                                      
113408     1EUROPEENNE DE CAUTIONNEMENT S A         EUROCAUTIO61119960531                                                18 R DE ST PETERSBOURG                                          75008 PARIS                     417927     N19960531EUCUFRP1XXX                                                                                                      
113428     1CREDIT SUISSE                           CREDISUISS11819960731                                                25 AV KLEBER                                                    75016 PARIS                     315040     N19960731CRESFRPZXXX                                                                                                      
113448     2IXIS CORPORATE ET INVESTMENT BANK       IXIS CIB  128200411012007123120100228                                47 QUAI D AUSTERLITZ                                            75648 PARIS CEDEX 13            42418530007N19960731                                                                                                                 
113453     1FINANCE FI                              FINANCE FI91919961011                                                15 RUE DROUOT                                                   75009 PARIS                     418445     N20061031FNCNFRP1XXX                                                                                                      
113473     1GASELYS                                 GASELYS   91820010627                                                2 6 RUE CURNONSKY                                               75017 PARIS                     420365     N20070228GASEFRP1XXX                                                                                                      
113485     1CAISSE D EPARGNE DU LANGUEDOC ROUSSILLONCELANGROUS22519911011                ZAC D ALCO                      254 RUE MICHEL TEULE            BP 7330                         34184 MONTPELLIER CEDEX 4       073000     N19940101CEPAFRPP348CAISSE D EPARGNE DU LANGUEDOC ROUSSILLON                                                              
113488     1HSBC PRIVATE BANK (MONACO) S A          HSBCPRIVMO11819970117                                                17 AV D OSTENDE                                                 98000 MONACO                    422653     N19970131BLICMCMCXXX                                                                                                      
113489     1BANQUE NUGER                            BQ NUGER  11819420226                                                7 PL DE LHOSPITAL               BP 56                           63002 CLERMONT FERRAND CEDEX    014600     N19940101BNUGFR21XXX                                                                                                      
113490     1CENTRAL EXPANSION                       CENTR EXP 61119660616                                                24 R AUGUSTE CHABRIERES                                         75737 PARIS CEDEX 15            121500     N19940101CEEXFRP1XXX                                                                                                      
113506     1CRCAM DU LANGUEDOC                      CRCA LANGU22020070501                                                AV DE MONTPELLIERET MAURIN                                      34977 LATTES CEDEX              296650     O20070531AGRIFRPP835                                                                                                      
113507     1BANQUE POPULAIRE DU NORD                BP NORD   22119841022                                                847 AV DE LA REPUBLIQUE                                         59700 MARCQ EN BAROEUL          017300     O20090531CCBPFRPPLIL                                                                                                      
113528     1UNICREDIT SPA                           UNICREDIT 11819970501                                                45 AV GEORGE V                                                  75008 PARIS                     458922     N19970430UNCRFRPPXXX                                                                                                      
113529     1BANQUE PELLETIER                        PELLETIER 11819411218                                                COURS JULIA AUGUSTA             BP 384                          40108 DAX CEDEX                 015140     N19940101BPELFR2YXXXBANQUE PELLETIER                                                                                      
113538     1FINIFAC                                 FINIFAC   61119970319                                                26 QUAI MICHELET                TSA 50001                       92695 LEVALLOIS PERRET CEDEX    419150     N19970331FNIFFR21XXX                                                                                                      
113539     1BANQUE SOLFEA                           SOLFEA    11819601222                                                49 AV DE L OPERA                                                75083 PARIS CEDEX 02            020000     N19940101BPETFRP1XXX                                                                                                      
113540     1FINANCIERE DU MARCHE SAINT HONORE       FIMARSTHON61119660101                                                37 PL DU MARCHE SAINT HONORE                                    75001 PARIS                     418732     N19940101FMSHFRP1XXX                                                                                                      
113543     1LEHMAN BROTHERS INTERNATIONAL (EUROPE)  LBIE      91920010901                                                7 PL D IENA                                                     75016 PARIS                     426700     N20010831SLIIFRCCXXX                                                                                                      
113553     1ODDO OPTIONS SNC                        ODDO SNC  91919980430                                                12 BD DE LA MADELEINE                                           75440 PARIS CEDEX 09            430750     N20070228ODDOFRPPOOP                                                                                                      
113558     1AUXIFIP                                 AUXIFIP   61119961231                                                1 ET 3 R DU PASSEUR DE BOULOGNE                                 92861 ISSY LES MOULINEAUX CEDEX9001262     N19970228AUXFFRP1                                                                                                         
113573     1FUND MARKET FRANCE                      FUNDMARKET91120011129                                                14 RUE DE LA NUEE BLEUE                                         67000 STRASBOURG                420360     N20070228FUMFFR21XXX                                                                                                      
113579     1BANQUE SAINT OLIVE                      B ST OLIVE11819411030                                                84 RUE DUGUESCLIN                                               69006 LYON                      019450     N19940101BSAOFR21XXX                                                                                                      
113580     1GE FACTOFRANCE                          GE FACTOFR11119670303                TOUR FACTO                      18 RUE HOCHE                                                    92988 PARIS LA DEFENSE CEDEX    420530     N19940101FACFFRP1XXX                                                                                                      
113606     1CRCAM D ILLE ET VILAINE                 CRCA I VIL22019841022                                                45 BD DE LA LIBERTE             BP 2025 X                       35040 RENNES CEDEX              296600     N19940101AGRIFRPP836                                                                                                      
113607     1BANQUE POP CENTRE ATLANTIQUE            BPCENTRATL22119841022                                                10 AV BUJAULT                                                   79002 NIORT CEDEX               016200     O19971031CCBPFRPPNIO                                                                                                      
113628     1ABN AMRO CORPORATE FINANCE FRANCE       ABNAMROCOR11819970310                                                94 BD HAUSSMANN                                                 75008 PARIS                     000167     N19970331                                                                                                                 
113648     1BANK OF SCOTLAND PLC                    BKSCOTLAND11819991001                                                21 RUE BALZAC                                                   75008 PARIS                     003350     N19970630BOFSFRP1XXX                                                                                                      
113668     2ABN AMRO FRANCE                         ABN AMROFR118199705292007062920090830                                40 R DE COURCELLES                                              75008 PARIS                     00016930788N19970531                                                                                                                 
113678     1IFN FINANCE                             IFNFINANCE61119970328                                                39 R ANATOLE FRANCE                                             92352 LEVALLOIS PERRET CEDEX    422952     N19970430IFFIFR21XXX                                                                                                      
113688     1ISBANK GMBH                             ISBANK    11819980518                                                3 RUE SCRIBE                                                    75009 PARIS                     424170     N19980501ISBKFRPPXXX                                                                                                      
113698     1ESTER FINANCE TITRISATION               ESTER FIN 61119980127                                                9 QUAI DU PDT PAUL DOUMER                                       92920 PARIS LA DEFENSE CEDEX    417000     N19980131ESFTFR21XXX                                                                                                      
113705     2CAISSE D EPARGNE CENTRE VAL DE LOIRE    CEVALLOIRE225199109302007111620090429                                267 R GIRAUDEAU                                                 37041 TOURS CEDEX               05979014505N19940101                                                                                                                 
113728     1COFIPLAN                                COFIPLAN  61119970804                                                1 BD HAUSSMANN                                                  75009 PARIS                     289092     N19970901COIPFRP1XXX                                                                                                      
113758     1PRETS ET SERVICES                       PRETS SERV61119970807                                                1 BD HAUSSMANN                                                  75009 PARIS                     432905     N19970831PRRSFRP1XXX                                                                                                      
113769     1STE GENERALE PR DEV OPE CIT BAIL IMMOB  SOGEBAIL  61119680315                                                29 BD HAUSSMANN                                                 75009 PARIS                     451500     N19940101SGDCFRP1XXX                                                                                                      
113773     1INVEST SECURITIES                       INVEST SEC91920020530                                                126 RUE REAUMUR                                                 75002 PARIS                     424150     N20070228INUUFRP1XXX                                                                                                      
113788     1IDIFINE                                 IDIFINE   61119970924                                                18 AV MATIGNON                                                  75008 PARIS 08 EME              422937     N19970930IDIFFRP1XXX                                                                                                      
113798     1CAISSE SOLIDAIRE                        C SOLIDAIR61119970912                                                15 RUE DE LA POSTE                                              59100 ROUBAIX                   102300     N19970731CAOOFR21XXX                                                                                                      
113807     1BANQUE POPULAIRE ATLANTIQUE             BPATLANTIQ22119841022                SAINT HERBLAIN                  1 RUE FRANCOISE SAGAN                                           44919 NANTES CEDEX 9            015650     N19940101CCBPFRPPNAN                                                                                                      
113825     1CAISSE D EPARGNE RHONE ALPES            CE RH ALP 22519911025                                                42 BD EUGENE DERUELLE                                           69003 LYON                      086510     N19940101CEPAFRPP382CAISSE D EPARGNE RHONE ALPES                                                                          
113838     1CNH CAPITAL EUROPE                      CNH CAP EU61119971007                LE METROPOLE LA DEFENSE         46 52 R ARAGO                                                   92800 PUTEAUX                   288800     N19971031CNCUFRP1XXX                                                                                                      
113858     1LOISIRS FINANCE                         LOISIRSFIN61119980121                                                20 AV GEORGES POMPIDOU                                          92300 LEVALLOIS PERRET          427650     N19980131LOFIFRP1XXX                                                                                                      
113878     1TOYOTA KREDITBK GMBH TOYOTA FRANCE FIN  TOYOTA KRE11819971201                                                36 BD DE LA REPUBLIQUE                                          92420 VAUCRESSON                457950     N19971130TKGTFR21XXX                                                                                                      
113880     1OSEO BRETAGNE                           BRETAGNE  61119680227                                                6 PL DE BRETAGNE                                                35044 RENNES CEDEX              431620     N19940101OSBEFR21XXX                                                                                                      
113888     1HSBC FACTORING (FRANCE)                 HSBC FACTO61119971015                                                103 AV DES CHAMPS ELYSEES                                       75008 PARIS                     422606     N19980131ELFAFRP1XXX                                                                                                      
113906     1CRCAM SUD RHONE ALPES                   CRCARONALP22019960530                                                15 17 RUE PAUL CLAUDEL          BP 67                           38041 GRENOBLE CEDEX            300250     O20031031AGRIFRPP839                                                                                                      
113907     1BANQUE POPULAIRE LOIRE ET LYONNAIS      BP LOILYON22119841022                IMMEUBLE P D G  PART DIEU       141 RUE GARIBALDI                                               69211 LYON CEDEX 03             016900     O20040831CCBPFRPPLYO                                                                                                      
113928     1GE CAPITAL FINANCEMENTS IMMOBILIERS     GECAPFINIM61119971219                                                2 ET 4 R PILLET WILL                                            75009 PARIS                     420500     N19980131CAFOFRP1XXX                                                                                                      
